:100000000C942A000C94CC100C94FF100C94321118
:100010000C9447000C9447000C9447000C94470044
:100020000C9447000C9447000C9447000C94470034
:100030000C9447000C9447000C9447000C94470024
:100040000C9447000C9447000C9447000C94470014
:100050000C94470011241FBECFE5D8E0DEBFCDBF12
:1000600010E0A0E6B0E0E8EEFEE202C005900D92DE
:10007000AA3CB107D9F710E0AAECB0E001C01D928C
:10008000A03DB107E1F70E9444060C9472170C944E
:100090000000EF92FF920F931F937B018C0120E0F1
:1000A00030E040E05FE40E94490388238CF0C801FF
:1000B000B70120E030E040E05FE40E94C1010E940F
:1000C000A9039B01AC01205030404040504806C07D
:1000D000C801B7010E94A9039B01AC01B901CA0183
:1000E0001F910F91FF90EF900895A0E0B0E0EBE733
:1000F000F0E00C947E16DC012B01FA019C91923009
:1001000008F439C1EB018881823008F433C194309E
:1001100069F4843009F02FC111969C91119789815F
:10012000981709F428C1AEE6B0E025C1843009F47F
:1001300021C18230A9F4923009F01DC19A01AD01AC
:1001400088E0EA010990AE01E90109929E0181501F
:10015000C1F7E201898111969C918923818308C1AD
:10016000923009F407C112962D903C901397EB0141
:100170008A819B811496AD90BD90CD90DC901797AD
:10018000EC80FD800E811F819101281B390BB90184
:1001900037FF04C066277727621B730B6032710537
:1001A0000CF061C0121613066CF537014801062EDB
:1001B00004C096948794779467940A94D2F721E0C8
:1001C00030E040E050E004C0220F331F441F551FB1
:1001D0006A95D2F721503040404050402E213F21B7
:1001E00040235123211531054105510521F021E01E
:1001F00030E040E050E079018A01E628F72808293C
:1002000019293CC0232BD1F1260E371E350146019A
:10021000062E04C096948794779467940A94D2F734
:1002200021E030E040E050E004C0220F331F441FC3
:10023000551F6A95D2F721503040404050402A2146
:100240003B214C215D21211531054105510521F04E
:1002500021E030E040E050E059016A01A628B728CB
:10026000C828D9280BC0821593052CF01C01AA249C
:10027000BB24650103C0EE24FF24870111969C91E5
:10028000D20111968C91981709F445C0992339F041
:10029000A80197012A193B094C095D0906C0A6016E
:1002A00095012E193F09400B510B57FD08C01182D3
:1002B0003382228224833583468357831DC081E0A5
:1002C00081833382228288279927DC01821B930B4A
:1002D000A40BB50B84839583A683B7830DC0220F2F
:1002E000331F441F551F24833583468357838281E0
:1002F000938101979383828324813581468157813D
:10030000DA01C9010197A109B1098F5F9F4FAF4F72
:10031000BF4328F30BC0918333822282EA0CFB1C7B
:100320000C1D1D1DE482F5820683178383E0808304
:10033000248135814681578157FF1AC0C901AA27F8
:1003400097FDA095BA2F81709070A070B0705695EF
:10035000479537952795822B932BA42BB52B848318
:100360009583A683B7838281938101969383828349
:10037000DF0101C0D201CD01CDB7DEB7E2E10C94BF
:100380009A16A0E2B0E0E7ECF1E00C948A166983DB
:100390007A838B839C832D833E834F835887E9E048
:1003A000EE2EF12CEC0EFD1ECE010196B7010E943F
:1003B000D2048E010F5E1F4FCE010596B8010E9438
:1003C000D2048A8991E089278A8BC701B801AE01DE
:1003D000475E5F4F0E9475000E94FD03A096E6E015
:1003E0000C94A616A0E2B0E0E8EFF1E00C948A16B7
:1003F00069837A838B839C832D833E834F835887C5
:10040000F9E0EF2EF12CEC0EFD1ECE010196B701A6
:100410000E94D2048E010F5E1F4FCE010596B801D7
:100420000E94D204C701B801AE01475E5F4F0E942F
:1004300075000E94FD03A096E6E00C94A616A0E2CB
:10044000B0E0E5E2F2E00C947E1669837A838B8358
:100450009C832D833E834F835887CE010196BE0136
:10046000675F7F4F0E94D204CE010596BE016F5E8A
:100470007F4F0E94D2049985923088F0898982301A
:10048000C8F0943019F4823051F404C0843029F457
:10049000923081F48EE690E0C6C0923049F420E0BC
:1004A0009A858A89981321E02A87CE010996BBC0D4
:1004B000823049F420E09A858A89981321E02A8BBA
:1004C000CE014196B0C02D843E844F8458886D88FB
:1004D0007E888F88988CEE24FF248701AA24BB2471
:1004E000650140E050E060E070E0E0E0F0E0C10174
:1004F00081709070892BE9F0E60CF71C081D191D1E
:100500009A01AB012A0D3B1D4C1D5D1D80E090E062
:10051000A0E0B0E0E614F7040805190520F481E036
:1005200090E0A0E0B0E0BA01A901480F591F6A1F8E
:100530007B1FAA0CBB1CCC1CDD1C97FE08C081E0F5
:1005400090E0A0E0B0E0A82AB92ACA2ADB2A3196B6
:10055000E032F10549F0660C771C881C991C569412
:10056000479437942794C3CFFA85EA892B893C892D
:100570008B859C85280F391F2E5F3F4F17C0CA01FE
:1005800081709070892B61F016950795F794E79428
:1005900080E090E0A0E0B0E8E82AF92A0A2B1B2BC3
:1005A00076956795579547952F5F3F4F77FDE7CF36
:1005B0000CC0440F551F661F771F17FD4160EE0CDE
:1005C000FF1C001F111F21503040403090E05907A0
:1005D00090E0690790E4790760F32B8F3C8FDB0193
:1005E000CA018F779070A070B07080349105A1051A
:1005F000B10561F447FD0AC0E114F10401051105DC
:1006000029F0405C5F4F6F4F7F4F40781A8EFE1786
:1006100011F081E08A8F4D8F5E8F6F8F78A383E01A
:10062000898FCE0149960E94FD03A096E2E10C94C9
:100630009A16A8E1B0E0EFE1F3E00C948A16698322
:100640007A838B839C832D833E834F83588789E0F5
:10065000E82EF12CEC0EFD1ECE010196B7010E9492
:10066000D2048E010F5E1F4FCE010596B8010E9485
:10067000D2048985823040F08989823028F0C70110
:10068000B8010E944A0501C08FEF6896E6E00C941D
:10069000A616A8E1B0E0EFE4F3E00C948A166983B3
:1006A0007A838B839C832D833E834F83588789E095
:1006B000E82EF12CEC0EFD1ECE010196B7010E9432
:1006C000D2048E010F5E1F4FCE010596B8010E9425
:1006D000D2048985823040F08989823028F0C701B0
:1006E000B8010E944A0501C08FEF6896E6E00C94BD
:1006F000A616A8E1B0E0EFE7F3E00C948A16698350
:100700007A838B839C832D833E834F83588789E034
:10071000E82EF12CEC0EFD1ECE010196B7010E94D1
:10072000D2048E010F5E1F4FCE010596B8010E94C4
:10073000D2048985823040F08989823028F0C7014F
:10074000B8010E944A0501C081E06896E6E00C9479
:10075000A616ACE0B0E0EFEAF3E00C948E166983E5
:100760007A838B839C83CE010196BE016B5F7F4FA2
:100770000E94D2048D81823061F1823050F1843048
:1007800021F48E81882351F12EC02F81388537FDC9
:1007900020C06E812F3131051CF06623F9F023C093
:1007A0008EE190E0821B930B29853A854B855C8511
:1007B00004C056954795379527958A95D2F76623B5
:1007C000B1F050954095309521953F4F4F4F5F4F79
:1007D0000EC020E030E040E050E009C02FEF3FEFD6
:1007E0004FEF5FE704C020E030E040E050E8B9019F
:1007F000CA012C96E2E00C94AA16DF92EF92FF92C7
:100800000F931F93FC01E480F58006811781D1804E
:100810008081823048F480E090E0A0E1B0E0E82AF6
:10082000F92A0A2B1B2BA5C0843009F49FC0823003
:1008300021F4EE24FF24870105C0E114F104010531
:10084000110519F4E0E0F0E096C0628173819FEF3A
:10085000623879070CF05BC022E83FEF261B370BAC
:100860002A3131052CF020E030E040E050E02AC091
:10087000B801A701022E04C0769567955795479554
:100880000A94D2F781E090E0A0E0B0E004C0880FC5
:10089000991FAA1FBB1F2A95D2F70197A109B10979
:1008A0008E219F21A023B1230097A105B10521F03E
:1008B00081E090E0A0E0B0E09A01AB01282B392B59
:1008C0004A2B5B2BDA01C9018F779070A070B07052
:1008D00080349105A105B10539F427FF09C0205CDA
:1008E0003F4F4F4F5F4F04C0215C3F4F4F4F5F4F13
:1008F000E0E0F0E02030A0E03A07A0E04A07A0E402
:100900005A0710F0E1E0F0E079018A0127C0603871
:10091000710564F5FB01E158FF4FD801C7018F77DE
:100920009070A070B07080349105A105B10539F4C4
:10093000E7FE0DC080E490E0A0E0B0E004C08FE3EB
:1009400090E0A0E0B0E0E80EF91E0A1F1B1F17FFA1
:1009500005C016950795F794E794319687E01695AC
:100960000795F794E7948A95D1F705C0EE24FF2404
:100970008701EFEFF0E06E2F679566276795902F60
:100980009F77D794DD24D7948E2F8695492F462BB9
:10099000582F5D29B701CA011F910F91FF90EF9069
:1009A000DF900895FC01DB01408151812281622F9B
:1009B0006F7770E0221F2227221F9381892F880FD3
:1009C000822B282F30E0991F9927991F11969C930D
:1009D000119721153105A9F54115510561057105DD
:1009E00011F482E037C082E89FEF13969C938E93B8
:1009F00012979A01AB0167E0220F331F441F551F66
:100A00006A95D1F783E08C930DC0220F331F441FEA
:100A1000551F12968D919C911397019713969C9355
:100A20008E931297203080E0380780E0480780E4FA
:100A3000580758F314962D933D934D935C93179755
:100A400008952F3F310579F4411551056105710570
:100A500019F484E08C93089564FF03C081E08C93C3
:100A600012C01C9210C02F57304013963C932E9307
:100A7000129783E08C9387E0440F551F661F771F02
:100A80008A95D1F7706414964D935D936D937C9322
:100A9000179708951F93DC01FB019C91923008F495
:100AA00047C08081823008F443C0943051F41196DD
:100AB0001C91843099F58181682F70E0611B710968
:100AC0003FC0843021F0923031F48230B9F181811D
:100AD000882389F12DC011961C9111978230F1F075
:100AE00081811817D9F412962D913C911397828128
:100AF00093818217930794F028173907BCF0149656
:100B00008D919D910D90BC91A02D248135814681C0
:100B10005781281739074A075B0718F4112341F05A
:100B20000AC082179307A407B50740F4112319F0F0
:100B300061E070E005C06FEF7FEF02C060E070E041
:100B4000CB011F910895DF93CF93CDB7DEB76297A6
:100B50000FB6F894DEBF0FBECDBF9A8B898B80E0B5
:100B600061E041E00E94B90C188A1F8677C080E0DE
:100B700090E0A0E8BFE38B879C87AD87BE876B853D
:100B80007C858D859E8520E030E04AEF54E40E940C
:100B90001F02DC01CB018F839887A987BA876F81F9
:100BA000788589859A8520E030E040E85FE30E94FF
:100BB000790388232CF481E090E09E838D833FC0ED
:100BC0006F81788589859A8520E03FEF4FE757E46C
:100BD0000E94190318164CF56B857C858D859E85C2
:100BE00020E030E040E251E40E941F02DC01CB0132
:100BF000BC01CD010E944900DC01CB019E838D83A5
:100C00000FC088EC90E09C838B838B819C81019743
:100C1000F1F79C838B838D819E8101979E838D83C9
:100C20008D819E81009769F714C06F8178858985D1
:100C30009A850E944900DC01CB019E838D838D81C2
:100C40009E819A83898389819A810197F1F79A839A
:100C500089838F8598890196988B8F872F8538890E
:100C600089899A892817390708F481CF80E061E0E3
:100C700040E00E94B90C62960FB6F894DEBF0FBE3A
:100C8000CDBFCF91DF910895DF93CF93CDB7DEB77E
:100C9000C855D0400FB6F894DEBF0FBECDBF0E943E
:100CA000770B80E060E040E00E94970B80E061E01D
:100CB00041E00E94970B83E064E041E00E94970BC3
:100CC00083E065E041E00E94970B83E066E041E04D
:100CD0000E94970B83E067E041E00E94970B82E05F
:100CE00060E041E00E94970B82E061E041E00E94F9
:100CF000970B82E067E041E00E94970B0E9464122C
:100D00002AE730E080E0B9010E94F01522E830E0E7
:100D100081E0B9010E94F0152AE830E082E0B901D3
:100D20000E94F01522E930E083E0B9010E94F0153D
:100D30002AE930E084E0B9010E94F01522EA30E0AF
:100D400085E0B9010E94F0152AEA30E086E0B90199
:100D50000E94F01522EB30E087E0B9010E94F01507
:100D6000FE01EC5AFF4F81E08083FE01ED5AFF4FF8
:100D700082E08083FE01EF5AFF4F11821082FE0154
:100D8000E15BFF4F88E090E091838083FE01E25BAE
:100D9000FF4F81E08083FE01E35BFF4F81E08083B2
:100DA000FE01E45BFF4F8FE08083FE01E65BFF4FB7
:100DB0008AE090E091838083FE01E85BFF4F11821F
:100DC0001082FE01E95BFF4F1082FE01EA5BFF4FDC
:100DD00081E08083FE01EB5BFF4F8FE08083FE01AB
:100DE000EC5BFF4F81E08083FE01ED5BFF4F82E013
:100DF0008083FE01EE5BFF4F1082FE01E05CFF4F3F
:100E00001182108289E190E09FAF8EAF1DAE1CAEC3
:100E10001BAE1AAE82E089AF18AE1FAA1EAA84E6E6
:100E200090E09DAB8CAB1BAA1AAA88E592E099AB27
:100E300088AB1FA61EA680E090E0A0E8BFE38FA3CA
:100E400098A7A9A7BAA76FA178A589A59AA520E018
:100E500030E04AEF54E40E941F02DC01CB018BA377
:100E60009CA3ADA3BEA36BA17CA18DA19EA120E0FC
:100E700030E040E85FE30E94790388232CF481E0AE
:100E800090E09AA389A33FC06BA17CA18DA19EA1F4
:100E900020E03FEF4FE757E40E94190318164CF586
:100EA0006FA178A589A59AA520E030E040E251E441
:100EB0000E941F02DC01CB01BC01CD010E94490050
:100EC000DC01CB019AA389A30FC088EC90E098A322
:100ED0008F8F8F8D98A10197F1F798A38F8F89A19C
:100EE0009AA101979AA389A389A19AA1009769F76A
:100EF00014C06BA17CA18DA19EA10E944900DC01C0
:100F0000CB019AA389A389A19AA19E8F8D8F8D8DE4
:100F10009E8D0197F1F79E8F8D8F8EA59FA50196CF
:100F20009FA78EA7FE01EF5AFF4FDE01A15BBF4FC7
:100F3000208131818D919C911197280F391F8EA5A9
:100F40009FA528173907E8F4FE01EF5AFF4F8EA539
:100F50009FA591838083FE01E25BFF4F80818130FA
:100F600029F482E069968FAF699704C081E06996A1
:100F70008FAF6997FE01E25BFF4F69968FAD69976E
:100F80008083FE01E85BFF4FDE01A65BBF4F20813F
:100F900031818D919C911197280F391F8EA59FA5A6
:100FA0002817390708F085C0FE01E85BFF4F8EA5C2
:100FB0009FA591838083DE01A45BBF4FFE01E45BAC
:100FC000FF4F808181508C93FE01E45BFF4F808155
:100FD00088230CF042C0FE01E45BFF4F8FE080836A
:100FE000FE01E65BFF4F808191818530910550F1D4
:100FF00089AD282F30E0FE01E65BFF4F80819181B3
:101000002817390780F489AD282F30E0DE01A65B70
:10101000BF4FFE01E65BFF4F80819181821B930BE6
:1010200011969C938E93FE01E65BFF4F8081918128
:101030008430910538F4FE01E65BFF4F84E090E0D8
:10104000918380830E94061723E030E0B9010E945B
:101050006B16FE01EA5BFF4F8083FE01E45BFF4FEE
:1010600080818F5F8BA78BA5803184F49BA581E065
:10107000692F0E94FF1480E20E9444129BA580E029
:10108000692F0E94FF1480E20E94441281E060E018
:101090000E94FF1480E20E94441280E060E00E94FF
:1010A000FF1480E20E944412FE01E95BFF4F81E0E1
:1010B0008083FE01EE5BFF4F80818823B1F5FE0146
:1010C000EC5AFF4F81E060810E94FF14FE01E25B59
:1010D000FF4F8081813029F482E068968FAF689756
:1010E00004C084E068968FAF689768968FAD689764
:1010F0000E944412FE01ED5AFF4F81E060810E9480
:10110000FF14FE01E25BFF4F8081813029F483E010
:1011100067968FAF679704C085E067968FAF679734
:1011200067968FAD67970E944412FE01E95BFF4FFF
:101130008081813009F064C0FE01EA5BFF4F80814D
:10114000813031F0FE01EA5BFF4F8081823029F56A
:10115000FE01E35BFF4F81E08083FE01E45BFF4F14
:101160009081FE01E35BFF4F8081692F0E94FF1495
:10117000FE01EA5BFF4F8081813029F486E06696AC
:101180008FAF669704C087E066968FAF66976696C6
:101190008FAD66970E9444122FC0FE01E45BFF4FA3
:1011A00080818150FE01EB5BFF4F8083FE01E35B9A
:1011B000FF4F1082FE01EB5BFF4F8081882374F0AC
:1011C000FE01EB5BFF4F9081FE01E35BFF4F8081EF
:1011D000692F0E94FF1486E00E944412FE01E45B26
:1011E000FF4F9081FE01E35BFF4F8081692F0E94DA
:1011F000FF1487E00E944412FE01E95BFF4F10825A
:1012000080E060E00E94E80E8DA78DA5813009F096
:101210004AC088AD882309F046C0FE01EE5BFF4F4F
:101220008081882309F03FC0FE01EE5BFF4F81E023
:1012300080838EA59FA59FAB8EABFE01E65BFF4F23
:1012400020813181C901880F991F820F931F880F58
:10125000991F9DAB8CABFE01EC5AFF4F81E0608182
:101260000E94FF1480E690E00E945A14FE01EC5B9D
:10127000FF4F82E38083FE01ED5BFF4F82E38083BB
:101280002AA93BA988A999A9280F391F8EA59FA52E
:101290002817390740F48EA59FA59BAB8AAB8EE13A
:1012A00090E00E94A3058DA588AFFE01EE5BFF4F85
:1012B00080818130C1F5FE01EC5AFF4F80E06081F2
:1012C0000E94FF1482E00E944412FE01ED5AFF4F7B
:1012D00080E060810E94FF1483E00E9444122EA9E6
:1012E0003FA98CA99DA9280F391F8EA59FA5281756
:1012F0003907C8F4FE01EE5BFF4F1082FE01EC5A85
:10130000FF4F80E060810E94FF1480E690E00E9421
:101310005A14FE01EC5BFF4F81E08083FE01ED5B20
:10132000FF4F82E080831CA6FE01E35BFF4F8081BC
:10133000882301F5FE01E45BFF4F8081813091F04D
:10134000FE01E45BFF4F8081823061F0FE01EB5BC8
:10135000FF4F8081813031F0FE01EB5BFF4F8081D8
:10136000823041F4FE01EE5BFF4F8081813011F449
:1013700081E08CA7FE01E35BFF4F8081813021F586
:10138000FE01E45BFF4F8081282F332727FD309536
:10139000FE01EC5BFF4F8081882F90E02817390712
:1013A00089F0FE01E45BFF4F8081282F332727FD62
:1013B0003095FE01ED5BFF4F8081882F90E028176C
:1013C000390711F481E08CA78CA5813009F0C5C0E4
:1013D00084EF91E00E94A3050E94771480E063E00F
:1013E0000E94FF1483E690E00E945A1480E090E08F
:1013F000AAEFB4E4898F9A8FAB8FBC8F698D7A8DF9
:101400008B8D9C8D20E030E04AEF54E40E941F0257
:10141000DC01CB018D8B9E8BAF8BB88F6D897E8964
:101420008F89988D20E030E040E85FE30E947903E7
:1014300088232CF481E090E09C8B8B8B3FC06D89DE
:101440007E898F89988D20E03FEF4FE757E40E9417
:10145000190318164CF5698D7A8D8B8D9C8D20E0C3
:1014600030E040E251E40E941F02DC01CB01BC01EC
:10147000CD010E944900DC01CB019C8B8B8B0FC0FE
:1014800088EC90E09A8B898B89899A890197F1F78A
:101490009A8B898B8B899C8901979C8B8B8B8B89F1
:1014A0009C89009769F714C06D897E898F89988D12
:1014B0000E944900DC01CB019C8B8B8B8B899C8922
:1014C000988B8F878F8598890197F1F7988B8F87F5
:1014D0000E947714FE01E45BFF4F8FE08083FE01E2
:1014E000EB5BFF4F8FE08083FE01E65BFF4F8AE0FE
:1014F00090E0918380831DAE1CAE1BAE1AAEFE0140
:10150000EE5BFF4F1082FE01EC5BFF4F81E08083BA
:10151000FE01ED5BFF4F82E08083FE01E85BFF4F41
:101520008EA59FA591838083FE01EF5AFF4F8EA564
:101530009FA591838083FE01E05CFF4F8EA59FA550
:1015400091838083FE01E95BFF4F1082FE01EA5B1D
:10155000FF4F81E0808318AE6ECCFE01E05CFF4F50
:10156000208131818EAD9FAD280F391F8EA59FA59B
:101570002817390708F05FCCFE01E05CFF4F8EA50D
:101580009FA5918380838CAD9DAD01969DAF8CAF5F
:101590008CAD9DAD8436910509F088C080E590E062
:1015A0000E94A30580E090E0A8E4B2E48B879C87CA
:1015B000AD87BE876B857C858D859E8520E030E07C
:1015C0004AEF54E40E941F02DC01CB018F8398870D
:1015D000A987BA876F81788589859A8520E030E070
:1015E00040E85FE30E94790388232CF481E090E0D7
:1015F0009E838D833FC06F81788589859A8520E0A1
:101600003FEF4FE757E40E94190318164CF56B851E
:101610007C858D859E8520E030E040E251E40E948B
:101620001F02DC01CB01BC01CD010E944900DC019D
:10163000CB019E838D830FC088EC90E09C838B83CD
:101640008B819C810197F1F79C838B838D819E8197
:1016500001979E838D838D819E81009769F714C0C9
:101660006F81788589859A850E944900DC01CB01CC
:101670009E838D838D819E819A83898389819A81BE
:101680000197F1F79A83898380E590E00E94A30592
:101690001DAE1CAE8AAD9BAD01969BAF8AAF8AADE5
:1016A0009BAD8436910511F41BAE1AAE81E06EE05D
:1016B0000E94FF1480E690E00E945A1481E06EE0E0
:1016C0000E94FF148CAD9DAD0E94951580E06EE0E8
:1016D0000E94FF1480E690E00E945A1480E06EE0C1
:1016E0000E94FF148AAD9BAD0E949515A4CBDF9399
:1016F000CF93CDB7DEB7EAE3F0E087EC8083E7E392
:10170000F0E01082E4E3F0E01082E1E3F0E0108228
:10171000EBE3F0E01082E8E3F0E01082E5E3F0E0D4
:101720001082E2E3F0E01082CF91DF910895DF9321
:10173000CF93CDB7DEB72D970FB6F894DEBF0FBEAF
:10174000CDBF89836A834B838981843008F008C1C7
:101750008A81883008F004C18B81823008F000C192
:101760008981282F30E03D872C878C859D858130AD
:10177000910509F44FC02C853D85223031052CF4AC
:101780008C859D85009771F0EBC02C853D852230BE
:10179000310509F477C08C859D858330910509F466
:1017A000A9C0DEC08B81282F30E03B872A878A853D
:1017B0009B850097D1F02A853B852130310509F0C2
:1017C000CFC0AAE3B0E0EAE3F0E08081482F8A814D
:1017D000282F30E081E090E0022E02C0880F991F90
:1017E0000A94E2F7842B8C93BBC0AAE3B0E0EAE34F
:1017F000F0E08081482F8A81282F30E081E090E05E
:10180000022E02C0880F991F0A94E2F78095842364
:101810008C93A6C08B81282F30E039872887888554
:1018200099850097D1F0288539852130310509F057
:1018300097C0A7E3B0E0E7E3F0E08081482F8A811A
:10184000282F30E081E090E0022E02C0880F991F1F
:101850000A94E2F7842B8C9383C0A7E3B0E0E7E31C
:10186000F0E08081482F8A81282F30E081E090E0ED
:10187000022E02C0880F991F0A94E2F780958423F4
:101880008C936EC08B81282F30E03F832E838E8116
:101890009F810097D1F02E813F812130310509F0E1
:1018A0005FC0A4E3B0E0E4E3F0E08081482F8A81E8
:1018B000282F30E081E090E0022E02C0880F991FAF
:1018C0000A94E2F7842B8C934BC0A4E3B0E0E4E3EA
:1018D000F0E08081482F8A81282F30E081E090E07D
:1018E000022E02C0880F991F0A94E2F78095842384
:1018F0008C9336C08B81282F30E03D832C838C81E4
:101900009D810097C9F02C813D812130310541F541
:10191000A1E3B0E0E1E3F0E08081482F8A81282F45
:1019200030E081E090E0022E02C0880F991F0A94F7
:10193000E2F7842B8C9314C0A1E3B0E0E1E3F0E084
:101940008081482F8A81282F30E081E090E0022EAC
:1019500002C0880F991F0A94E2F7809584238C9324
:101960002D960FB6F894DEBF0FBECDBFCF91DF919D
:101970000895DF93CF93CDB7DEB72D970FB6F894C8
:10198000DEBF0FBECDBF89836A834B8389818430DC
:1019900008F008C18A81883008F004C18B81823048
:1019A00008F000C18981282F30E03D872C878C8585
:1019B0009D858130910509F44FC02C853D852230ED
:1019C00031052CF48C859D85009771F0EBC02C853A
:1019D0003D852230310509F477C08C859D858330A3
:1019E000910509F4A9C0DEC08B81282F30E03B8728
:1019F0002A878A859B850097D1F02A853B852130EF
:101A0000310509F0CFC0ABE3B0E0EBE3F0E080815B
:101A1000482F8A81282F30E081E090E0022E02C01A
:101A2000880F991F0A94E2F7842B8C93BBC0ABE319
:101A3000B0E0EBE3F0E08081482F8A81282F30E08E
:101A400081E090E0022E02C0880F991F0A94E2F70D
:101A5000809584238C93A6C08B81282F30E0398712
:101A60002887888599850097D1F028853985213088
:101A7000310509F097C0A8E3B0E0E8E3F0E0808129
:101A8000482F8A81282F30E081E090E0022E02C0AA
:101A9000880F991F0A94E2F7842B8C9383C0A8E3E4
:101AA000B0E0E8E3F0E08081482F8A81282F30E021
:101AB00081E090E0022E02C0880F991F0A94E2F79D
:101AC000809584238C936EC08B81282F30E03F83D8
:101AD0002E838E819F810097D1F02E813F8121300E
:101AE000310509F05FC0A5E3B0E0E5E3F0E08081F7
:101AF000482F8A81282F30E081E090E0022E02C03A
:101B0000880F991F0A94E2F7842B8C934BC0A5E3AE
:101B1000B0E0E5E3F0E08081482F8A81282F30E0B3
:101B200081E090E0022E02C0880F991F0A94E2F72C
:101B3000809584238C9336C08B81282F30E03D83A1
:101B40002C838C819D810097C9F02C813D812130AF
:101B5000310541F5A2E3B0E0E2E3F0E08081482FF7
:101B60008A81282F30E081E090E0022E02C0880FA9
:101B7000991F0A94E2F7842B8C9314C0A2E3B0E07F
:101B8000E2E3F0E08081482F8A81282F30E081E075
:101B900090E0022E02C0880F991F0A94E2F7809508
:101BA00084238C932D960FB6F894DEBF0FBECDBF65
:101BB000CF91DF910895DF93CF9300D000D0CDB7C0
:101BC000DEB789836A838981843008F072C08A8194
:101BD000883008F06EC08981282F30E03C832B8349
:101BE0008B819C818130910549F12B813C81223090
:101BF00031052CF48B819C81009761F05AC02B81B8
:101C00003C812230310571F18B819C8183309105BB
:101C1000E9F14FC0ABE3B0E0EBE3F0E08081482FA7
:101C20008A81282F30E081E090E0022E02C0880FE8
:101C3000991F0A94E2F784278C933BC0A8E3B0E095
:101C4000E8E3F0E08081482F8A81282F30E081E0AE
:101C500090E0022E02C0880F991F0A94E2F78427B1
:101C60008C9327C0A5E3B0E0E5E3F0E08081482F46
:101C70008A81282F30E081E090E0022E02C0880F98
:101C8000991F0A94E2F784278C9313C0A2E3B0E073
:101C9000E2E3F0E08081482F8A81282F30E081E064
:101CA00090E0022E02C0880F991F0A94E2F7842761
:101CB0008C930F900F900F900F90CF91DF9108951C
:101CC000DF93CF9300D000D0CDB7DEB789836A838E
:101CD0008981843090F58981282F30E03C832B83E3
:101CE0008B819C8181309105D1F02B813C81223008
:101CF00031052CF48B819C81009761F01EC02B81F3
:101D00003C812230310581F08B819C8183309105AB
:101D100081F013C0EAE3F0E08A8180830EC0E7E33C
:101D2000F0E08A81808309C0E4E3F0E08A81808367
:101D300004C0E1E3F0E08A8180830F900F900F9060
:101D40000F90CF91DF910895DF93CF9300D000D013
:101D5000CDB7DEB789836A838981843090F5898124
:101D6000282F30E03C832B838B819C81813091052F
:101D7000D1F02B813C81223031052CF48B819C8168
:101D8000009761F01EC02B813C812230310581F02B
:101D90008B819C818330910581F013C0EBE3F0E0EF
:101DA0008A8180830EC0E8E3F0E08A81808309C0E5
:101DB000E5E3F0E08A81808304C0E2E3F0E08A8119
:101DC00080830F900F900F900F90CF91DF91089527
:101DD000DF93CF9300D000D00F92CDB7DEB78A83C8
:101DE0006B8319828A81843008F06BC08B818830C4
:101DF00008F067C08A81282F30E03D832C834C8116
:101E00005D814130510541F18C819D818230910588
:101E100034F42C813D812115310561F052C04C8193
:101E20005D814230510551F18C819D818330910556
:101E3000B9F147C0E9E3F0E08081282F30E08B81E1
:101E4000882F90E0A90102C0559547958A95E2F741
:101E5000CA018170898335C0E6E3F0E08081282FD4
:101E600030E08B81882F90E0A90102C055954795FD
:101E70008A95E2F7CA018170898323C0E3E3F0E029
:101E80008081282F30E08B81882F90E0A90102C04B
:101E9000559547958A95E2F7CA018170898311C0EB
:101EA000E0E3F0E08081282F30E08B81882F90E004
:101EB000A90102C0559547958A95E2F7CA0181703C
:101EC000898389810F900F900F900F900F90CF9181
:101ED000DF910895DF93CF9300D000D000D0CDB72D
:101EE000DEB789836A838981833008F05EC08A8186
:101EF000843008F05AC08981282F30E03E832D833A
:101F00008D819E8181309105D1F02D813E812230DD
:101F1000310561F18D819E81009709F046C0A5E5EC
:101F2000B0E0E5E5F0E080818C7F8C93A5E5B0E042
:101F3000E5E5F0E090818A81892B8C9336C0A5E598
:101F4000B0E0E5E5F0E08081837F8C93A5E5B0E02B
:101F5000E5E5F0E08081282F8A81882F90E0880FC6
:101F6000991F880F991F822B8C931FC08A81282F5D
:101F700030E03C832B838B819C818230910531F052
:101F80002B813C812330310549F00FC0A4E5B0E03E
:101F9000E4E5F0E080818F7B8C9307C0A4E5B0E09E
:101FA000E4E5F0E0808180648C9326960FB6F89487
:101FB000DEBF0FBECDBFCF91DF910895DF93CF93EA
:101FC00000D00F92CDB7DEB789838981833050F579
:101FD0008981282F30E03B832A838A819B8181304D
:101FE000910589F02A813B8122303105A1F08A8157
:101FF0009B810097B9F4ABE5B0E0EBE5F0E08081C0
:1020000080648C930FC0ABE5B0E0EBE5F0E080813D
:1020100080688C9307C0ABE5B0E0EBE5F0E0808131
:1020200080628C930F900F900F90CF91DF91089565
:10203000DF93CF9300D00F92CDB7DEB7898389812C
:10204000833050F58981282F30E03B832A838A81B1
:102050009B818130910589F02A813B8122303105B5
:10206000A1F08A819B810097B9F4ABE5B0E0EBE584
:10207000F0E080818F7B8C930FC0ABE5B0E0EBE5A7
:10208000F0E080818F778C9307C0ABE5B0E0EBE5A3
:10209000F0E080818F7D8C930F900F900F90CF9107
:1020A000DF910895DF93CF9300D00F92CDB7DEB7C5
:1020B00089838981833050F58981282F30E03B83E3
:1020C0002A838A819B818130910589F02A813B8115
:1020D00022303105A1F08A819B810097B9F4AAE5ED
:1020E000B0E0EAE5F0E0808180648C930FC0AAE55F
:1020F000B0E0EAE5F0E0808180688C9307C0AAE553
:10210000B0E0EAE5F0E0808180628C930F900F9060
:102110000F90CF91DF910895DF93CF9300D000D03F
:102120000F92CDB7DEB789837B836A838981833041
:1021300058F58A819B81009739F18981282F30E0F9
:102140003D832C838C819D818130910581F02C8190
:102150003D812230310591F08C819D810097A1F461
:102160008A819B819093CB008093CA000DC08A81A5
:102170009B819093CD008093CC0006C08A819B8187
:102180009093CF008093CE000F900F900F900F9000
:102190000F90CF91DF9108951F920F920FB60F927B
:1021A00011242F933F934F935F936F937F938F935C
:1021B0009F93AF93BF93EF93FF93DF93CF93CDB7ED
:1021C000DEB78091CA009091CB00009729F0E09192
:1021D000CA00F091CB000995CF91DF91FF91EF916B
:1021E000BF91AF919F918F917F916F915F914F912F
:1021F0003F912F910F900FBE0F901F9018951F9237
:102200000F920FB60F9211242F933F934F935F932A
:102210006F937F938F939F93AF93BF93EF93FF93AE
:10222000DF93CF93CDB7DEB78091CC009091CD00F6
:10223000009729F0E091CC00F091CD000995CF9165
:10224000DF91FF91EF91BF91AF919F918F917F911E
:102250006F915F914F913F912F910F900FBE0F9013
:102260001F9018951F920F920FB60F9211242F9363
:102270003F934F935F936F937F938F939F93AF930E
:10228000BF93EF93FF93DF93CF93CDB7DEB78091EA
:10229000CE009091CF00009729F0E091CE00F09110
:1022A000CF000995CF91DF91FF91EF91BF91AF9151
:1022B0009F918F917F916F915F914F913F912F915E
:1022C0000F900FBE0F901F901895DF93CF93CDB74F
:1022D000DEB72E970FB6F894DEBF0FBECDBF82E0FB
:1022E00067E041E00E94B90C80E090E0A0E0B0E43B
:1022F0008B879C87AD87BE876B857C858D859E850A
:1023000020E030E04AEF54E40E941F02DC01CB01E0
:102310008F839887A987BA876F81788589859A8501
:1023200020E030E040E85FE30E94790388232CF44A
:1023300081E090E09E838D833FC06F8178858985A1
:102340009A8520E03FEF4FE757E40E9419031816E3
:102350004CF56B857C858D859E8520E030E040E2E4
:1023600051E40E941F02DC01CB01BC01CD010E949F
:102370004900DC01CB019E838D830FC088EC90E087
:102380009C838B838B819C810197F1F79C838B834A
:102390008D819E8101979E838D838D819E81009783
:1023A00069F714C06F81788589859A850E944900F4
:1023B000DC01CB019E838D838D819E819A838983ED
:1023C00089819A810197F1F79A83898382E067E096
:1023D00040E00E94B90C2E960FB6F894DEBF0FBEF7
:1023E000CDBFCF91DF910895DF93CF930F92CDB7FB
:1023F000DEB789838981982F917083E064E0492F4B
:102400000E94B90C89818695982F917083E065E0D0
:10241000492F0E94B90C898186958695982F9170D5
:1024200083E066E0492F0E94B90C898186958695E4
:102430008695982F917083E067E0492F0E94B90C30
:102440000F90CF91DF910895DF93CF930F92CDB787
:10245000DEB7898382E060E040E00E94B90C82E050
:1024600061E040E00E94B90C898182958F700E94E2
:10247000F4110E94651189810E94F4110E94651176
:102480000F90CF91DF910895DF93CF930F92CDB747
:10249000DEB7898382E060E041E00E94B90C82E00F
:1024A00061E040E00E94B90C898182958F700E94A2
:1024B000F4110E94651189810E94F4110E94651136
:1024C0000F90CF91DF910895DF93CF93CDB7DEB713
:1024D000E8970FB6F894DEBF0FBECDBF80E090E066
:1024E000ACE0B2E48DAB9EABAFABB8AF6DA97EA94B
:1024F0008FA998AD20E030E04AEF54E40E941F021B
:10250000DC01CB0189AB9AABABABBCAB69A97AA9B7
:102510008BA99CA920E030E040E85FE30E947903AA
:1025200088232CF481E090E098AB8FA73FC069A985
:102530007AA98BA99CA920E03FEF4FE757E40E94BE
:10254000190318164CF56DA97EA98FA998AD20E046
:1025500030E040E251E40E941F02DC01CB01BC01EB
:10256000CD010E944900DC01CB0198AB8FA70FC0C1
:1025700088EC90E09EA78DA78DA59EA50197F1F709
:102580009EA78DA78FA598A9019798AB8FA78FA518
:1025900098A9009769F714C069A97AA98BA99CA981
:1025A0000E944900DC01CB0198AB8FA78FA598A9A9
:1025B0009CA78BA78BA59CA50197F1F79CA78BA740
:1025C00082E060E040E00E94B90C82E061E040E01F
:1025D0000E94B90C82E00E94F4110E94651188E209
:1025E0000E94241280E090E0A0E8BFE38FA398A7A8
:1025F000A9A7BAA76FA178A589A59AA520E030E080
:102600004AEF54E40E941F02DC01CB018BA39CA380
:10261000ADA3BEA36BA17CA18DA19EA120E030E063
:1026200040E85FE30E94790388232CF481E090E086
:102630009AA389A33FC06BA17CA18DA19EA120E09C
:102640003FEF4FE757E40E94190318164CF56FA1AE
:1026500078A589A59AA520E030E040E251E40E94E7
:102660001F02DC01CB01BC01CD010E944900DC014D
:10267000CB019AA389A30FC088EC90E098A38F8F19
:102680008F8D98A10197F1F798A38F8F89A19AA1B7
:1026900001979AA389A389A19AA1009769F714C009
:1026A0006BA17CA18DA19EA10E944900DC01CB0100
:1026B0009AA389A389A19AA19E8F8D8F8D8D9E8DBE
:1026C0000197F1F79E8F8D8F8CE00E94241280E09D
:1026D00090E0A0E8BFE3898F9A8FAB8FBC8F698DA4
:1026E0007A8D8B8D9C8D20E030E04AEF54E40E947F
:1026F0001F02DC01CB018D8B9E8BAF8BB88F6D8958
:102700007E898F89988D20E030E040E85FE30E9469
:10271000790388232CF481E090E09C8B8B8B3FC065
:102720006D897E898F89988D20E03FEF4FE757E4D0
:102730000E94190318164CF5698D7A8D8B8D9C8D2E
:1027400020E030E040E251E40E941F02DC01CB01B6
:10275000BC01CD010E944900DC01CB019C8B8B8B1D
:102760000FC088EC90E09A8B898B89899A890197B0
:10277000F1F79A8B898B8B899C8901979C8B8B8B2A
:102780008B899C89009769F714C06D897E898F8930
:10279000988D0E944900DC01CB019C8B8B8B8B892F
:1027A0009C89988B8F878F8598890197F1F7988BF3
:1027B0008F8781E00E94241280E090E0A0E0B0E4E6
:1027C0008B879C87AD87BE876B857C858D859E8535
:1027D00020E030E04AEF54E40E941F02DC01CB010C
:1027E0008F839887A987BA876F81788589859A852D
:1027F00020E030E040E85FE30E94790388232CF476
:1028000081E090E09E838D833FC06F8178858985CC
:102810009A8520E03FEF4FE757E40E94190318160E
:102820004CF56B857C858D859E8520E030E040E20F
:1028300051E40E941F02DC01CB01BC01CD010E94CA
:102840004900DC01CB019E838D830FC088EC90E0B2
:102850009C838B838B819C810197F1F79C838B8375
:102860008D819E8101979E838D838D819E810097AE
:1028700069F714C06F81788589859A850E9449001F
:10288000DC01CB019E838D838D819E819A83898318
:1028900089819A810197F1F79A83898386E00E9462
:1028A0002412E8960FB6F894DEBF0FBECDBFCF91CD
:1028B000DF910895DF93CF9300D0CDB7DEB79A8331
:1028C00089830BC0E981FA81208189819A810196EF
:1028D0009A838983822F0E944412E981FA81808140
:1028E000882381F70F900F90CF91DF910895DF93A8
:1028F000CF93CDB7DEB72E970FB6F894DEBF0FBEDD
:10290000CDBF81E00E94241280E090E0A0E0B0E41E
:102910008B879C87AD87BE876B857C858D859E85E3
:1029200020E030E04AEF54E40E941F02DC01CB01BA
:102930008F839887A987BA876F81788589859A85DB
:1029400020E030E040E85FE30E94790388232CF424
:1029500081E090E09E838D833FC06F81788589857B
:102960009A8520E03FEF4FE757E40E9419031816BD
:102970004CF56B857C858D859E8520E030E040E2BE
:1029800051E40E941F02DC01CB01BC01CD010E9479
:102990004900DC01CB019E838D830FC088EC90E061
:1029A0009C838B838B819C810197F1F79C838B8324
:1029B0008D819E8101979E838D838D819E8100975D
:1029C00069F714C06F81788589859A850E944900CE
:1029D000DC01CB019E838D838D819E819A838983C7
:1029E00089819A810197F1F79A8389832E960FB690
:1029F000F894DEBF0FBECDBFCF91DF910895DF9376
:102A0000CF93CDB7DEB760970FB6F894DEBF0FBE99
:102A1000CDBF8F87688B8F85882329F4888980585C
:102A20000E94241207C08F85813021F48889805448
:102A30000E94241280E090E0A0E8BFE38B879C878F
:102A4000AD87BE876B857C858D859E8520E030E0D7
:102A50004AEF54E40E941F02DC01CB018F83988768
:102A6000A987BA876F81788589859A8520E030E0CB
:102A700040E85FE30E94790388232CF481E090E032
:102A80009E838D833FC06F81788589859A8520E0FC
:102A90003FEF4FE757E40E94190318164CF56B857A
:102AA0007C858D859E8520E030E040E251E40E94E7
:102AB0001F02DC01CB01BC01CD010E944900DC01F9
:102AC000CB019E838D830FC088EC90E09C838B8329
:102AD0008B819C810197F1F79C838B838D819E81F3
:102AE00001979E838D838D819E81009769F714C025
:102AF0006F81788589859A850E944900DC01CB0128
:102B00009E838D838D819E819A83898389819A8119
:102B10000197F1F79A83898360960FB6F894DEBF28
:102B20000FBECDBFCF91DF910895DF93CF9300D03B
:102B300000D0CDB7DEB79C838B8381E090E09A8391
:102B400089838B819C81009731F580E30E94441238
:102B500040C089819A819C01220F331FC901880FCF
:102B6000991F880F991FF901E80FF91F8B819C812C
:102B70002AE030E0B9010E9457168E0F9F1F9A83FA
:102B800089838B819C812AE030E0B9010E9457162D
:102B9000CB019C838B838B819C810097D1F614C0E1
:102BA00089819A812AE030E0B9010E945716805D40
:102BB0000E94441289819A812AE030E0B9010E9482
:102BC0005716CB019A83898389819A818130910537
:102BD00039F70F900F900F900F90CF91DF910895DC
:102BE000DF93CF9300D000D00F92CDB7DEB78B83A9
:102BF0007D836C838B81882F90E0880F991F880FCD
:102C0000991F880F991F8A838A8180640E942412E9
:102C100019820EC08981282F30E08C819D81FC01B2
:102C2000E20FF31F80810E94441289818F5F8983A4
:102C30008981883078F380E80E9424120F900F90E9
:102C40000F900F900F90CF91DF910895DF93CF9366
:102C5000CDB7DEB7A3E5B0E0E3E5F0E080818F7BA0
:102C60008C93A3E5B0E0E3E5F0E0808188608C938D
:102C7000A9E5B0E0E9E5F0E080818E7F8C93A9E5DD
:102C8000B0E0E9E5F0E0808182608C93A3E5B0E0FC
:102C9000E3E5F0E08081887C8C93A3E5B0E0E3E598
:102CA000F0E0808183608C93CF91DF910895AA1B1F
:102CB000BB1B51E107C0AA1FBB1FA617B70710F027
:102CC000A61BB70B881F991F5A95A9F78095909559
:102CD000BC01CD01089597FB092E07260AD077FD88
:102CE00004D0E5DF06D000201AF4709561957F4F7F
:102CF0000895F6F7909581959F4F08952F923F92F2
:102D00004F925F926F927F928F929F92AF92BF92FB
:102D1000CF92DF92EF92FF920F931F93CF93DF93A7
:102D2000CDB7DEB7CA1BDB0B0FB6F894DEBF0FBE04
:102D3000CDBF09942A88398848885F846E847D8451
:102D40008C849B84AA84B984C884DF80EE80FD8053
:102D50000C811B81AA81B981CE0FD11D0FB6F894C9
:102D6000DEBF0FBECDBFED010895A0E0B0E0EBEBFC
:102D7000F6E10C948616EC01A880B980CA80DB804D
:102D8000A114B104C104D10441F484E2A82E89ED58
:102D9000B82E8BE5C82E87E0D82EC601B5012DE1EF
:102DA00033EF41E050E00E94351727EA31E440E07C
:102DB00050E00E9416177B018C01C601B5012DE180
:102DC00033EF41E050E00E943517CA01B9012CEE03
:102DD00034EF4FEF5FEF0E9416176E0D7F1D801FBF
:102DE000911F97FF04C061507040804090486883F5
:102DF00079838A839B839B013F77C901CDB7DEB777
:102E0000EAE00C94A2160E94B516089586E790E0B9
:102E10000E94B5160895A0E0B0E0809376009093EC
:102E20007700A0937800B09379000895629FD00155
:102E3000739FF001829FE00DF11D649FE00DF11D75
:102E4000929FF00D839FF00D749FF00D659FF00D24
:102E50009927729FB00DE11DF91F639FB00DE11D11
:102E6000F91FBD01CF011124089597FB092E0526F6
:102E70000ED057FD04D014D00AD0001C38F4509561
:102E80004095309521953F4F4F4F5F4F0895F6F78E
:102E900090958095709561957F4F8F4F9F4F0895C6
:102EA000A1E21A2EAA1BBB1BFD010DC0AA1FBB1F4E
:102EB000EE1FFF1FA217B307E407F50720F0A21BC0
:102EC000B30BE40BF50B661F771F881F991F1A942D
:102ED00069F760957095809590959B01AC01BD0157
:082EE000CF010895F894FFCF23
:102EE80020200047414D45204F5645522100000003
:102EF80000000000000001000000000002020303BF
:102F08000101070707041C1C18080000020203033C
:102F18000101070707041C1C180000000202030334
:102F28000100070707041C1C180800040414141CDB
:102F38000404040505151F04040401010101091F07
:0A2F480000000010181C1E1F0000FE
:00000001FF
