:100000000C942A000C94D5140C9408150C943B15F0
:100010000C9447000C9447000C9447000C94470044
:100020000C9447000C9447000C9447000C94470034
:100030000C9447000C9447000C9447000C94470024
:100040000C9447000C9447000C9447000C94470014
:100050000C94470011241FBECFE5D8E0DEBFCDBF12
:1000600010E0A0E6B0E0EAEFF6E302C005900D92E2
:10007000AA3DB107D9F710E0AAEDB0E001C01D928A
:10008000A03EB107E1F70E944F060C947B1B0C9435
:100090000000EF92FF920F931F937B018C0120E0F1
:1000A00030E040E05FE40E94F50388238CF0C80153
:1000B000B70120E030E040E05FE40E94C1010E940F
:1000C00055049B01AC01205030404040504806C0D0
:1000D000C801B7010E9455049B01AC01B901CA01D6
:1000E0001F910F91FF90EF900895A0E0B0E0EBE733
:1000F000F0E00C94871ADC012B01FA019C919230FC
:1001000008F439C1EB018881823008F433C194309E
:1001100069F4843009F02FC111969C91119789815F
:10012000981709F428C1ADE7B0E025C1843009F47F
:1001300021C18230A9F4923009F01DC19A01AD01AC
:1001400088E0EA010990AE01E90109929E0181501F
:10015000C1F7E201898111969C918923818308C1AD
:10016000923009F407C112962D903C901397EB0141
:100170008A819B811496AD90BD90CD90DC901797AD
:10018000EC80FD800E811F819101281B390BB90184
:1001900037FF04C066277727621B730B6032710537
:1001A0000CF061C0121613066CF537014801062EDB
:1001B00004C096948794779467940A94D2F721E0C8
:1001C00030E040E050E004C0220F331F441F551FB1
:1001D0006A95D2F721503040404050402E213F21B7
:1001E00040235123211531054105510521F021E01E
:1001F00030E040E050E079018A01E628F72808293C
:1002000019293CC0232BD1F1260E371E350146019A
:10021000062E04C096948794779467940A94D2F734
:1002200021E030E040E050E004C0220F331F441FC3
:10023000551F6A95D2F721503040404050402A2146
:100240003B214C215D21211531054105510521F04E
:1002500021E030E040E050E059016A01A628B728CB
:10026000C828D9280BC0821593052CF01C01AA249C
:10027000BB24650103C0EE24FF24870111969C91E5
:10028000D20111968C91981709F445C0992339F041
:10029000A80197012A193B094C095D0906C0A6016E
:1002A00095012E193F09400B510B57FD08C01182D3
:1002B0003382228224833583468357831DC081E0A5
:1002C00081833382228288279927DC01821B930B4A
:1002D000A40BB50B84839583A683B7830DC0220F2F
:1002E000331F441F551F24833583468357838281E0
:1002F000938101979383828324813581468157813D
:10030000DA01C9010197A109B1098F5F9F4FAF4F72
:10031000BF4328F30BC0918333822282EA0CFB1C7B
:100320000C1D1D1DE482F5820683178383E0808304
:10033000248135814681578157FF1AC0C901AA27F8
:1003400097FDA095BA2F81709070A070B0705695EF
:10035000479537952795822B932BA42BB52B848318
:100360009583A683B7838281938101969383828349
:10037000DF0101C0D201CD01CDB7DEB7E2E10C94BF
:10038000A31AA0E2B0E0E7ECF1E00C94931A6983C1
:100390007A838B839C832D833E834F835887E9E048
:1003A000EE2EF12CEC0EFD1ECE010196B7010E943F
:1003B0007E058E010F5E1F4FCE010596B8010E948B
:1003C0007E058A8991E089278A8BC701B801AE0131
:1003D000475E5F4F0E9475000E94A904A096E6E068
:1003E0000C94AF1AA0E2B0E0E8EFF1E00C94931A9D
:1003F00069837A838B839C832D833E834F835887C5
:10040000F9E0EF2EF12CEC0EFD1ECE010196B701A6
:100410000E947E058E010F5E1F4FCE010596B8012A
:100420000E947E05C701B801AE01475E5F4F0E9482
:1004300075000E94A904A096E6E00C94AF1AA0E211
:10044000B0E0E5E2F2E00C94871A69837A838B834B
:100450009C832D833E834F835887CE010196BE0136
:10046000675F7F4F0E947E05CE010596BE016F5EDD
:100470007F4F0E947E059985923088F0898982306D
:10048000C8F0943019F4823051F404C0843029F457
:10049000923081F48DE790E0C6C0923049F420E0BC
:1004A0009A858A89981321E02A87CE010996BBC0D4
:1004B000823049F420E09A858A89981321E02A8BBA
:1004C000CE014196B0C02D843E844F8458886D88FB
:1004D0007E888F88988CEE24FF248701AA24BB2471
:1004E000650140E050E060E070E0E0E0F0E0C10174
:1004F00081709070892BE9F0E60CF71C081D191D1E
:100500009A01AB012A0D3B1D4C1D5D1D80E090E062
:10051000A0E0B0E0E614F7040805190520F481E036
:1005200090E0A0E0B0E0BA01A901480F591F6A1F8E
:100530007B1FAA0CBB1CCC1CDD1C97FE08C081E0F5
:1005400090E0A0E0B0E0A82AB92ACA2ADB2A3196B6
:10055000E032F10549F0660C771C881C991C569412
:10056000479437942794C3CFFA85EA892B893C892D
:100570008B859C85280F391F2E5F3F4F17C0CA01FE
:1005800081709070892B61F016950795F794E79428
:1005900080E090E0A0E0B0E8E82AF92A0A2B1B2BC3
:1005A00076956795579547952F5F3F4F77FDE7CF36
:1005B0000CC0440F551F661F771F17FD4160EE0CDE
:1005C000FF1C001F111F21503040403090E05907A0
:1005D00090E0690790E4790760F32B8F3C8FDB0193
:1005E000CA018F779070A070B07080349105A1051A
:1005F000B10561F447FD0AC0E114F10401051105DC
:1006000029F0405C5F4F6F4F7F4F40781A8EFE1786
:1006100011F081E08A8F4D8F5E8F6F8F78A383E01A
:10062000898FCE0149960E94A904A096E2E10C941C
:10063000A31AA8E1B0E0EFE1F3E00C948F1A69830C
:100640007A838B839C832D833E834F835887B9E0C5
:10065000EB2EF12CEC0EFD1ECE010196B7010E948F
:100660007E058E010F5E1F4FCE010596B8010E94D8
:100670007E052985223008F47EC03989323010F495
:10068000B8017CC08A859A8989278A87243011F02D
:10069000223031F4231709F06EC06DE770E06EC0B0
:1006A000343039F41D861E861F86188A1C861B86E8
:1006B00004C0323021F484E08987B7015FC02B8504
:1006C0003C858B899C89281B390B3C872B87ED84C3
:1006D000FE840F851889AD88BE88CF88D88CEA142F
:1006E000FB040C051D0540F4EE0CFF1C001F111F40
:1006F000215030403C872B8720E030E040E050E044
:1007000080E090E0A0E0B0E460E070E0EA14FB0478
:100710000C051D0540F0282B392B4A2B5B2BEA18C2
:10072000FB080C091D09B695A79597958795EE0CC2
:10073000FF1C001F111F6F5F7F4F6F31710531F775
:10074000DA01C9018F779070A070B0708034910584
:10075000A105B10561F427FD0AC0E114F10401050A
:10076000110529F0205C3F4F4F4F5F4F20782D87B8
:100770003E874F87588BBE01675F7F4FCB010E943A
:10078000A9046896EAE00C94AB1AA8E1B0E0EBEC9F
:10079000F3E00C94931A69837A838B839C832D8373
:1007A0003E834F83588789E0E82EF12CEC0EFD1E26
:1007B000CE010196B7010E947E058E010F5E1F4F8C
:1007C000CE010596B8010E947E058985823040F0F1
:1007D0008989823028F0C701B8010E94F60501C05E
:1007E0008FEF6896E6E00C94AF1AA8E1B0E0EBEF6B
:1007F000F3E00C94931A69837A838B839C832D8313
:100800003E834F83588789E0E82EF12CEC0EFD1EC5
:10081000CE010196B7010E947E058E010F5E1F4F2B
:10082000CE010596B8010E947E058985823040F090
:100830008989823028F0C701B8010E94F60501C0FD
:100840008FEF6896E6E00C94AF1AA8E1B0E0EBE217
:10085000F4E00C94931A69837A838B839C832D83B1
:100860003E834F83588789E0E82EF12CEC0EFD1E65
:10087000CE010196B7010E947E058E010F5E1F4FCB
:10088000CE010596B8010E947E058985823040F030
:100890008989823028F0C701B8010E94F60501C09D
:1008A00081E06896E6E00C94AF1AACE0B0E0EBE5CE
:1008B000F4E00C94971A69837A838B839C83CE012E
:1008C0000196BE016B5F7F4F0E947E058D81823055
:1008D00061F1823050F1843021F48E81882351F10E
:1008E0002EC02F81388537FD20C06E812F31310514
:1008F0001CF06623F9F023C08EE190E0821B930B7D
:1009000029853A854B855C8504C056954795379572
:1009100027958A95D2F76623B1F05095409530958A
:1009200021953F4F4F4F5F4F0EC020E030E040E039
:1009300050E009C02FEF3FEF4FEF5FE704C020E02A
:1009400030E040E050E8B901CA012C96E2E00C9496
:10095000B31ADF92EF92FF920F931F93FC01E48092
:10096000F58006811781D1808081823048F480E053
:1009700090E0A0E1B0E0E82AF92A0A2B1B2BA5C0E1
:10098000843009F49FC0823021F4EE24FF248701D3
:1009900005C0E114F1040105110519F4E0E0F0E0EF
:1009A00096C0628173819FEF623879070CF05BC05B
:1009B00022E83FEF261B370B2A3131052CF020E0CF
:1009C00030E040E050E02AC0B801A701022E04C088
:1009D00076956795579547950A94D2F781E090E010
:1009E000A0E0B0E004C0880F991FAA1FBB1F2A9582
:1009F000D2F70197A109B1098E219F21A023B1232C
:100A00000097A105B10521F081E090E0A0E0B0E001
:100A10009A01AB01282B392B4A2B5B2BDA01C90138
:100A20008F779070A070B07080349105A105B105EA
:100A300039F427FF09C0205C3F4F4F4F5F4F04C080
:100A4000215C3F4F4F4F5F4FE0E0F0E02030A0E0EF
:100A50003A07A0E04A07A0E45A0710F0E1E0F0E00E
:100A600079018A0127C06038710564F5FB01E158FE
:100A7000FF4FD801C7018F779070A070B07080349D
:100A80009105A105B10539F4E7FE0DC080E490E0C1
:100A9000A0E0B0E004C08FE390E0A0E0B0E0E80E9A
:100AA000F91E0A1F1B1F17FF05C016950795F7941F
:100AB000E794319687E016950795F794E7948A9521
:100AC000D1F705C0EE24FF248701EFEFF0E06E2F91
:100AD000679566276795902F9F77D794DD24D794E5
:100AE0008E2F8695492F462B582F5D29B701CA01B5
:100AF0001F910F91FF90EF90DF900895FC01DB01B3
:100B0000408151812281622F6F7770E0221F22275E
:100B1000221F9381892F880F822B282F30E0991F65
:100B20009927991F11969C93119721153105A9F5C5
:100B3000411551056105710511F482E037C082E865
:100B40009FEF13969C938E9312979A01AB0167E0E7
:100B5000220F331F441F551F6A95D1F783E08C93F2
:100B60000DC0220F331F441F551F12968D919C916B
:100B70001397019713969C938E931297203080E0E1
:100B8000380780E0480780E4580758F314962D93FF
:100B90003D934D935C93179708952F3F310579F45A
:100BA000411551056105710519F484E08C93089590
:100BB00064FF03C081E08C9312C01C9210C02F57B9
:100BC000304013963C932E93129783E08C9387E0EA
:100BD000440F551F661F771F8A95D1F770641496CE
:100BE0004D935D936D937C93179708951F93DC014C
:100BF000FB019C91923008F447C08081823008F458
:100C000043C0943051F411961C91843099F5818140
:100C1000682F70E0611B71093FC0843021F0923071
:100C200031F48230B9F18181882389F12DC0119688
:100C30001C9111978230F1F081811817D9F4129626
:100C40002D913C911397828193818217930794F0A1
:100C500028173907BCF014968D919D910D90BC9189
:100C6000A02D2481358146815781281739074A07ED
:100C70005B0718F4112341F00AC082179307A407F9
:100C8000B50740F4112319F061E070E005C06FEF83
:100C90007FEF02C060E070E0CB011F9108950F93D9
:100CA0001F93DF93CF93CDB7DEB7C759D0400FB6B0
:100CB000F894DEBF0FBECDBF0E94800F80E060E0E1
:100CC00040E00E94A00F80E061E041E00E94A00FA0
:100CD00083E064E041E00E94A00F83E065E041E032
:100CE0000E94A00F83E066E041E00E94A00F83E035
:100CF00067E041E00E94A00F82E060E041E00E94D6
:100D0000A00F82E061E041E00E94A00F82E067E076
:100D100041E00E94A00F0E946D1629E830E080E0BB
:100D2000B9010E94F91921E930E081E0B9010E947E
:100D3000F91929E930E082E0B9010E94F91921EAA4
:100D400030E083E0B9010E94F91929EA30E084E03B
:100D5000B9010E94F91921EB30E085E0B9010E9448
:100D6000F91929EB30E086E0B9010E94F91921EC6C
:100D700030E087E0B9010E94F91980E061E00E944B
:100D8000081980E690E00E94631880E060E00E940D
:100D9000F1128130D1F70E948018FE01ED56FF4F0D
:100DA00081E08083FE01EE56FF4F82E08083FE01EA
:100DB000E057FF4F11821082FE01E257FF4F88E09B
:100DC00090E091838083FE01E357FF4F81E08083B1
:100DD000FE01E457FF4F81E08083FE01E557FF4F9E
:100DE0008FE08083FE01E757FF4F8AE090E0918318
:100DF0008083FE01E957FF4F11821082FE01EA57FE
:100E0000FF4F1082FE01EB57FF4F81E08083FE0110
:100E1000EC57FF4F8FE08083FE01ED57FF4F81E0DD
:100E20008083FE01EE57FF4F82E08083FE01EF5783
:100E3000FF4F1082FE01E158FF4F11821082FE0128
:100E4000E358FF4F89E190E091838083FE01E558EC
:100E5000FF4F11821082FE01E758FF4F118210826E
:100E6000FE01E858FF4F82E08083FE01E958FF4F02
:100E700081E08083FE01EB58FF4F11821082FE015A
:100E8000ED58FF4F84E690E091838083FE01EF5898
:100E9000FF4F11821082FE01E059FF4F1082FE01C8
:100EA000E259FF4F11821082FE01E059FF4F80810D
:100EB000882309F43BC280E061E041E00E94C21057
:100EC000FE01EB59FF4F80E090E0AAEFB3E480838E
:100ED0009183A283B3838E010F591F4FFE01EB59FB
:100EE000FF4F60817181828193812BEA3AEA4AE265
:100EF00050E40E941F02DC01CB01F8018083918342
:100F0000A283B383FE01EF59FF4F6081718182811B
:100F1000938120E030E040E85FE30E9425048823CD
:100F200034F4FE01E05AFF4F81E08083E0C0FE010F
:100F3000EF59FF4F608171818281938120E030E021
:100F40004FE753E40E94C50318160CF0C0C0FE0121
:100F5000EB59FF4F608171818281938120E030E005
:100F60004AE754E40E941903DC01CB01FE01E45A74
:100F7000FF4F80839183A283B3838E01085A1F4F52
:100F8000FE01E45AFF4F608171818281938120E0EC
:100F900030E04AEF54E40E941F02DC01CB01F8016B
:100FA00080839183A283B383FE01E85AFF4F60815F
:100FB00071818281938120E030E040E85FE30E940C
:100FC0002504882344F4FE01EA5AFF4F81E090E0B3
:100FD0009183808364C0FE01E85AFF4F6081718174
:100FE0008281938120E03FEF4FE757E40E94C503E1
:100FF00018160CF043C0FE01E45AFF4F6081718166
:101000008281938120E030E040E251E40E941F029F
:10101000DC01CB018E010A5A1F4FBC01CD010E9499
:101020004900DC01CB01F801918380831FC0FE01E0
:10103000EC5AFF4F88EC90E091838083FE01EC5ADC
:10104000FF4F808191810197F1F7FE01EC5AFF4F2C
:1010500091838083DE01AA5ABF4FFE01EA5AFF4FF7
:1010600080819181019711969C938E93FE01EA5A9B
:10107000FF4F808191810097D1F64BC08E010A5AB3
:101080001F4FFE01E85AFF4F608171818281938179
:101090000E944900DC01CB01F80191838083DE01CD
:1010A000AE5ABF4FFE01EA5AFF4F808191811196DF
:1010B0009C938E93FE01EE5AFF4F808191810197A0
:1010C000F1F7FE01EE5AFF4F9183808322C08E011B
:1010D000005A1F4FFE01EF59FF4F608171818281DD
:1010E00093810E944900DC01CB01F8018083DE017D
:1010F000AF5ABF4FFE01E05AFF4F80818C93FE0133
:10110000EF5AFF4F80818A95F1F7FE01EF5AFF4FAA
:10111000808380E061E040E00E94C210FE01E35B5A
:10112000FF4F80E090E0AAEFB3E480839183A28335
:10113000B3838E01075B1F4FFE01E35BFF4F6081AE
:101140007181828193812BEA3AEA4AE250E40E945B
:101150001F02DC01CB01F80180839183A283B3835A
:10116000FE01E75BFF4F608171818281938120E006
:1011700030E040E85FE30E942504882334F4FE0158
:10118000E85BFF4F81E08083B4C0FE01E75BFF4F67
:10119000608171818281938120E030E04FE753E4E8
:1011A0000E94C50318160CF094C0FE01E35BFF4FCC
:1011B000608171818281938120E030E04AE754E4CC
:1011C0000E941903DC01CB01FE01EC5BFF4F808321
:1011D0009183A283B3838E01005C1F4FFE01EC5B01
:1011E000FF4F608171818281938120E030E04AEF7E
:1011F00054E40E941F02DC01CB01F801808391833B
:10120000A283B383FE01E05CFF4F60817181828124
:10121000938120E030E040E85FE30E9425048823CA
:101220002CF481E090E09FAF8EAF48C0FE01E05CFF
:10123000FF4F608171818281938120E03FEF4FE712
:1012400057E40E94C503181664F5FE01EC5BFF4FDE
:10125000608171818281938120E030E040E251E43D
:101260000E941F02DC01CB01BC01CD010E9449009C
:10127000DC01CB019FAF8EAF0FC088EC90E09DAF3B
:101280008CAF8CAD9DAD0197F1F79DAF8CAF8EAD5E
:101290009FAD01979FAF8EAF8EAD9FAD009769F761
:1012A00031C0FE01E05CFF4F6081718182819381DA
:1012B0000E944900DC01CB019FAF8EAF8EAD9FAD88
:1012C0009BAF8AAF8AAD9BAD0197F1F79BAF8AAF19
:1012D00019C08E01085B1F4FFE01E75BFF4F608165
:1012E0007181828193810E944900DC01CB01F80168
:1012F0008083FE01E85BFF4F808189AF89AD8A95CD
:10130000F1F789AFFE01EF58FF4FDE01A259BF4F41
:10131000208131818D919C9111972817390708F40C
:1013200077C0FE01E059FF4F108272C080E090E06C
:10133000A0E8BFE38DAB9EABAFABB8AF6DA97EA904
:101340008FA998AD20E030E04AEF54E40E941F02DC
:10135000DC01CB0189AB9AABABABBCAB69A97AA979
:101360008BA99CA920E030E040E85FE30E942504BF
:1013700088232CF481E090E098AB8FA73FC069A947
:101380007AA98BA99CA920E03FEF4FE757E40E9480
:10139000C50318164CF56DA97EA98FA998AD20E05C
:1013A00030E040E251E40E941F02DC01CB01BC01AD
:1013B000CD010E944900DC01CB0198AB8FA70FC083
:1013C00088EC90E09EA78DA78DA59EA50197F1F7CB
:1013D0009EA78DA78FA598A9019798AB8FA78FA5DA
:1013E00098A9009769F714C069A97AA98BA99CA943
:1013F0000E944900DC01CB0198AB8FA78FA598A96B
:101400009CA78BA78BA59CA50197F1F79CA78BA701
:10141000DE01AF58BF4FFE01EF58FF4F8081918131
:1014200001968D939C93FE01E057FF4FDE01A2577A
:10143000BF4F208131818D919C911197280F391FC9
:10144000FE01EF58FF4F808191812817390738F549
:10145000DE01A057BF4FFE01EF58FF4F8081918101
:1014600011969C938E93FE01E357FF4F808181304C
:1014700039F4F2E0C956DF4FF883C759D04006C0AF
:1014800021E0C956DF4F2883C759D040FE01E357FA
:10149000FF4FC956DF4F8881C759D0408083FE0176
:1014A000E957FF4FDE01A757BF4F208131818D9152
:1014B0009C911197280F391FFE01EF58FF4F808133
:1014C00091812817390708F0BFC0DE01A957BF4F27
:1014D000FE01EF58FF4F808191818D939C93DE0137
:1014E000A557BF4FFE01E557FF4F808181508C9378
:1014F000FE01E557FF4F808188230CF06DC0FE018F
:10150000E557FF4F8FE08083FE01E757FF4F808153
:1015100091818530910580F1FE01E858FF4F80816F
:10152000282F30E0FE01E757FF4F80819181281777
:10153000390798F4FE01E858FF4F8081282F30E0EA
:10154000DE01A757BF4FFE01E757FF4F8081918112
:10155000821B930B11969C938E93FE01E757FF4FCE
:10156000808191818430910538F4FE01E757FF4F67
:1015700084E090E0918380830E940F1B23E030E0A1
:10158000B9010E94741AFE01EB57FF4F8083FE01E0
:10159000EB57FF4F8081813031F0FE01EB57FF4F59
:1015A0008081823069F429EB30E086E0B9010E9445
:1015B000F91921EC30E087E0B9010E94F9190CC05B
:1015C00029EC30E086E0B9010E94F91921ED30E004
:1015D00087E0B9010E94F919FE01E557FF4F8081AC
:1015E0008F5FFE01E559FF4F8083FE01E559FF4FF4
:1015F00080818031B4F4FE01E559FF4F908181E094
:10160000692F0E94081980E20E944D16FE01E559DB
:10161000FF4F908180E0692F0E94081980E20E94AC
:101620004D1681E060E00E94081980E20E944D168C
:1016300080E060E00E94081980E20E944D16FE01E1
:10164000EA57FF4F81E08083FE01EF57FF4F808113
:10165000882309F042C0FE01ED56FF4F81E0608112
:101660000E940819FE01E357FF4F8081813039F451
:10167000E2E0CA56DF4FE883C659D04006C0F4E026
:10168000CA56DF4FF883C659D040CA56DF4F88810B
:10169000C659D0400E944D16FE01EE56FF4F81E024
:1016A00060810E940819FE01E357FF4F808181305D
:1016B00039F423E0CB56DF4F2883C559D04006C00C
:1016C00085E0CB56DF4F8883C559D040CB56DF4FDE
:1016D0008881C559D0400E944D16FE01EA57FF4F40
:1016E0008081813009F06AC0FE01EB57FF4F808195
:1016F000813031F0FE01EB57FF4F8081823059F588
:10170000FE01E457FF4F81E08083FE01E557FF4F64
:101710009081FE01E457FF4F8081692F0E940819D4
:10172000FE01EB57FF4F8081813039F4E6E0CC5663
:10173000DF4FE883C459D04006C0F7E0CC56DF4FF6
:10174000F883C459D040CC56DF4F8881C459D0406B
:101750000E944D162FC0FE01E557FF4F808181503A
:10176000FE01EC57FF4F8083FE01E457FF4F1082CC
:10177000FE01EC57FF4F8081882374F0FE01EC5787
:10178000FF4F9081FE01E457FF4F8081692F0E9437
:10179000081986E00E944D16FE01E557FF4F908123
:1017A000FE01E457FF4F8081692F0E94081987E0EE
:1017B0000E944D16FE01EA57FF4F108280E060E064
:1017C0000E94F112FE01E359FF4F8083FE01E359AD
:1017D000FF4F8081813009F053C0FE01E958FF4F6F
:1017E0008081882309F04CC0FE01EF57FF4F8081B4
:1017F000882309F045C0FE01EF57FF4F81E0808349
:10180000DE01AB58BF4FFE01EF58FF4F8081918141
:101810008D939C93DE01AD58BF4FFE01E757FF4FFC
:1018200020813181C901880F991F820F931F880F72
:10183000991F8D939C93FE01ED56FF4F81E06081CF
:101840000E9408198FE690E00E946318FE01ED5790
:10185000FF4F82E38083FE01EE57FF4F82E38083D8
:10186000FE01E059FF4F81E08083DE01A259BF4FA6
:10187000FE01EF58FF4F808191814E968D939C938E
:10188000DE01A958BF4FFE01E359FF4F80818C93C1
:10189000FE01EF57FF4F8081813009F042C0FE0109
:1018A000ED56FF4F80E060810E94081982E00E949F
:1018B0004D16FE01EE56FF4F80E060810E94081930
:1018C00083E00E944D16FE01EB58FF4FDE01AD583C
:1018D000BF4F208131818D919C911197280F391F25
:1018E000FE01EF58FF4F8081918128173907C8F416
:1018F000FE01EF57FF4F1082FE01ED56FF4F80E0D3
:1019000060810E9408198FE690E00E946318FE0132
:10191000ED57FF4F81E08083FE01EE57FF4F82E0DD
:101920008083FE01E459FF4F1082FE01E457FF4F10
:101930008081882319F5FE01E557FF4F80818130B2
:1019400091F0FE01E557FF4F8081823061F0FE018A
:10195000EC57FF4F8081813031F0FE01EC57FF4F93
:101960008081823059F4FE01EF57FF4F8081813032
:1019700029F4FE01E459FF4F81E08083FE01E45722
:10198000FF4F8081813039F5FE01E557FF4F80819F
:10199000282F332727FD3095FE01ED57FF4F80811B
:1019A000882F90E02817390789F0FE01E557FF4F8F
:1019B0008081282F332727FD3095FE01EE57FF4FFA
:1019C0008081882F90E02817390729F4FE01E45917
:1019D000FF4F81E08083FE01E459FF4F8081813019
:1019E00009F003C2FE01E759FF4F1182108282C045
:1019F00080E061E00E94E41180E090E0A0E8BFE3B5
:101A00008FA398A7A9A7BAA76FA178A589A59AA51A
:101A100020E030E04AEF54E40E941F02DC01CB01D9
:101A20008BA39CA3ADA3BEA36BA17CA18DA19EA102
:101A300020E030E040E85FE30E94250488232CF496
:101A400081E090E09AA389A33FC06BA17CA18DA106
:101A50009EA120E03FEF4FE757E40E94C503181610
:101A60004CF56FA178A589A59AA520E030E040E269
:101A700051E40E941F02DC01CB01BC01CD010E9498
:101A80004900DC01CB019AA389A30FC088EC90E048
:101A900098A38F8F8F8D98A10197F1F798A38F8FBF
:101AA00089A19AA101979AA389A389A19AA10097D4
:101AB00069F714C06BA17CA18DA19EA10E94490071
:101AC000DC01CB019AA389A389A19AA19E8F8D8F56
:101AD0008D8D9E8D0197F1F79E8F8D8FDE01A75919
:101AE000BF4FFE01E759FF4F80819181019611960A
:101AF0009C938E93FE01E759FF4F8081918121E0F5
:101B00008039920708F474CF80E061E040E00E94E1
:101B1000C210FE01E059FF4F10820E94801880E041
:101B200063E00E94081982E790E00E94631880E059
:101B300090E0AAEFB4E4898F9A8FAB8FBC8F698D48
:101B40007A8D8B8D9C8D20E030E04AEF54E40E942A
:101B50001F02DC01CB018D8B9E8BAF8BB88F6D8903
:101B60007E898F89988D20E030E040E85FE30E9415
:101B7000250488232CF481E090E09C8B8B8B3FC064
:101B80006D897E898F89988D20E03FEF4FE757E47C
:101B90000E94C50318164CF5698D7A8D8B8D9C8D2E
:101BA00020E030E040E251E40E941F02DC01CB0162
:101BB000BC01CD010E944900DC01CB019C8B8B8BC9
:101BC0000FC088EC90E09A8B898B89899A8901975C
:101BD000F1F79A8B898B8B899C8901979C8B8B8BD6
:101BE0008B899C89009769F714C06D897E898F89DC
:101BF000988D0E944900DC01CB019C8B8B8B8B89DB
:101C00009C89988B8F878F8598890197F1F7988B9E
:101C10008F870E94801880E061E00E94081980E6AA
:101C200090E00E94631880E060E00E94F112813031
:101C3000D1F380E090E0A8E4B2E48B879C87AD8785
:101C4000BE876B857C858D859E8520E030E04AEFE0
:101C500054E40E941F02DC01CB018F839887A9877F
:101C6000BA876F81788589859A8520E030E040E8E1
:101C70005FE30E94250488232CF481E090E09E839A
:101C80008D833FC06F81788589859A8520E03FEFFD
:101C90004FE757E40E94C50318164CF56B857C8509
:101CA0008D859E8520E030E040E251E40E941F02D5
:101CB000DC01CB01BC01CD010E944900DC01CB015C
:101CC0009E838D830FC088EC90E09C838B838B81F7
:101CD0009C810197F1F79C838B838D819E81019775
:101CE0009E838D838D819E81009769F714C06F81DB
:101CF000788589859A850E944900DC01CB019E8305
:101D00008D838D819E819A83898389819A810197B0
:101D1000F1F79A83898380E060E00E94F1128130BC
:101D2000D1F70E948018FE01E557FF4F8FE08083B6
:101D3000FE01EC57FF4F8FE08083FE01E757FF4F16
:101D40008AE090E091838083FE01E558FF4F118285
:101D50001082FE01E758FF4F11821082FE01EF57FB
:101D6000FF4F1082FE01ED57FF4F81E08083FE019F
:101D7000EE57FF4F82E08083DE01A957BF4FFE017F
:101D8000EF58FF4F808191818D939C93DE01A05786
:101D9000BF4FFE01EF58FF4F808191818D939C933F
:101DA000DE01A158BF4FFE01EF58FF4F80819181A6
:101DB0008D939C93FE01EA57FF4F1082FE01EB5773
:101DC000FF4F81E08083FE01E958FF4F81E080836F
:101DD00029EB30E086E0B9010E94F91921EC30E0EE
:101DE00087E0B9010E94F9195FC8FE01E158FF4F71
:101DF000DE01A358BF4F208131818D919C911197B5
:101E0000280F391FFE01EF58FF4F8081918128175D
:101E1000390708F049C8DE01A158BF4FFE01EF584D
:101E2000FF4F808191818D939C93DE01A558BF4F18
:101E3000FE01E558FF4F80819181019611969C9398
:101E40008E93FE01E558FF4F808191818436910584
:101E500079F5FE01E059FF4F81E08083DE01A25950
:101E6000BF4FFE01EF58FF4F808191818C599F4FEA
:101E70008D939C93FE01E558FF4F11821082DE0185
:101E8000A758BF4FFE01E758FF4F8081918101960F
:101E900011969C938E93FE01E758FF4F80819181AC
:101EA0008436910529F4FE01E758FF4F1182108214
:101EB00081E06EE00E9408198FE690E00E946318AE
:101EC00081E06EE00E940819FE01E558FF4F808115
:101ED00091810E949E1980E06EE00E9408198FE6B1
:101EE00090E00E94631880E06EE00E940819FE01F5
:101EF000E758FF4F808191810E949E190C945407EE
:101F0000DF93CF93CDB7DEB7EAE3F0E087EC8083D1
:101F1000E7E3F0E01082E4E3F0E01082E1E3F0E0D8
:101F20001082EBE3F0E01082E8E3F0E01082E5E3FA
:101F3000F0E01082E2E3F0E01082CF91DF910895AB
:101F4000DF93CF93CDB7DEB72D970FB6F894DEBFF2
:101F50000FBECDBF89836A834B838981843008F0AB
:101F600008C18A81883008F004C18B81823008F072
:101F700000C18981282F30E03D872C878C859D8585
:101F80008130910509F44FC02C853D852230310503
:101F90002CF48C859D85009771F0EBC02C853D85D8
:101FA0002230310509F477C08C859D8583309105F9
:101FB00009F4A9C0DEC08B81282F30E03B872A8737
:101FC0008A859B850097D1F02A853B852130310594
:101FD00009F0CFC0AAE3B0E0EAE3F0E08081482F47
:101FE0008A81282F30E081E090E0022E02C0880F25
:101FF000991F0A94E2F7842B8C93BBC0AAE3B0E04C
:10200000EAE3F0E08081482F8A81282F30E081E0E8
:1020100090E0022E02C0880F991F0A94E2F7809583
:1020200084238C93A6C08B81282F30E039872887A2
:10203000888599850097D1F028853985213031052B
:1020400009F097C0A7E3B0E0E7E3F0E08081482F14
:102050008A81282F30E081E090E0022E02C0880FB4
:10206000991F0A94E2F7842B8C9383C0A7E3B0E016
:10207000E7E3F0E08081482F8A81282F30E081E07B
:1020800090E0022E02C0880F991F0A94E2F7809513
:1020900084238C936EC08B81282F30E03F832E8366
:1020A0008E819F810097D1F02E813F8121303105B3
:1020B00009F05FC0A4E3B0E0E4E3F0E08081482FE2
:1020C0008A81282F30E081E090E0022E02C0880F44
:1020D000991F0A94E2F7842B8C934BC0A4E3B0E0E1
:1020E000E4E3F0E08081482F8A81282F30E081E00E
:1020F00090E0022E02C0880F991F0A94E2F78095A3
:1021000084238C9336C08B81282F30E03D832C8331
:102110008C819D810097C9F02C813D812130310552
:1021200041F5A1E3B0E0E1E3F0E08081482F8A814E
:10213000282F30E081E090E0022E02C0880F991F26
:102140000A94E2F7842B8C9314C0A1E3B0E0E1E39E
:10215000F0E08081482F8A81282F30E081E090E0F4
:10216000022E02C0880F991F0A94E2F780958423FB
:102170008C932D960FB6F894DEBF0FBECDBFCF91D6
:10218000DF910895DF93CF93CDB7DEB72D970FB6CC
:10219000F894DEBF0FBECDBF89836A834B838981EC
:1021A000843008F008C18A81883008F004C18B812E
:1021B000823008F000C18981282F30E03D872C87CC
:1021C0008C859D858130910509F44FC02C853D8516
:1021D000223031052CF48C859D85009771F0EBC081
:1021E0002C853D852230310509F477C08C859D858D
:1021F0008330910509F4A9C0DEC08B81282F30E01F
:102200003B872A878A859B850097D1F02A853B8565
:102210002130310509F0CFC0ABE3B0E0EBE3F0E0F3
:102220008081482F8A81282F30E081E090E0022EC3
:1022300002C0880F991F0A94E2F7842B8C93BBC0CD
:10224000ABE3B0E0EBE3F0E08081482F8A81282FF8
:1022500030E081E090E0022E02C0880F991F0A94BE
:10226000E2F7809584238C93A6C08B81282F30E0E1
:1022700039872887888599850097D1F02885398501
:102280002130310509F097C0A8E3B0E0E8E3F0E0C1
:102290008081482F8A81282F30E081E090E0022E53
:1022A00002C0880F991F0A94E2F7842B8C9383C095
:1022B000A8E3B0E0E8E3F0E08081482F8A81282F8E
:1022C00030E081E090E0022E02C0880F991F0A944E
:1022D000E2F7809584238C936EC08B81282F30E0A9
:1022E0003F832E838E819F810097D1F02E813F8185
:1022F0002130310509F05FC0A5E3B0E0E5E3F0E08F
:102300008081482F8A81282F30E081E090E0022EE2
:1023100002C0880F991F0A94E2F7842B8C934BC05C
:10232000A5E3B0E0E5E3F0E08081482F8A81282F23
:1023300030E081E090E0022E02C0880F991F0A94DD
:10234000E2F7809584238C9336C08B81282F30E070
:102350003D832C838C819D810097C9F02C813D8128
:102360002130310541F5A2E3B0E0E2E3F0E0808105
:10237000482F8A81282F30E081E090E0022E02C0B1
:10238000880F991F0A94E2F7842B8C9314C0A2E360
:10239000B0E0E2E3F0E08081482F8A81282F30E02E
:1023A00081E090E0022E02C0880F991F0A94E2F7A4
:1023B000809584238C932D960FB6F894DEBF0FBEC4
:1023C000CDBFCF91DF910895DF93CF9300D000D0A0
:1023D000CDB7DEB789836A838981843008F072C003
:1023E0008A81883008F06EC08981282F30E03C83D4
:1023F0002B838B819C818130910549F12B813C811C
:10240000223031052CF48B819C81009761F05AC0F9
:102410002B813C812230310571F18B819C8183308D
:102420009105E9F14FC0ABE3B0E0EBE3F0E0808170
:10243000482F8A81282F30E081E090E0022E02C0F0
:10244000880F991F0A94E2F784278C933BC0A8E376
:10245000B0E0E8E3F0E08081482F8A81282F30E067
:1024600081E090E0022E02C0880F991F0A94E2F7E3
:1024700084278C9327C0A5E3B0E0E5E3F0E08081FA
:10248000482F8A81282F30E081E090E0022E02C0A0
:10249000880F991F0A94E2F784278C9313C0A2E354
:1024A000B0E0E2E3F0E08081482F8A81282F30E01D
:1024B00081E090E0022E02C0880F991F0A94E2F793
:1024C00084278C930F900F900F900F90CF91DF91F6
:1024D0000895DF93CF9300D000D0CDB7DEB78983C6
:1024E0006A838981843090F58981282F30E03C838C
:1024F0002B838B819C8181309105D1F02B813C8194
:10250000223031052CF48B819C81009761F01EC034
:102510002B813C812230310581F08B819C8183307D
:10252000910581F013C0EAE3F0E08A8180830EC058
:10253000E7E3F0E08A81808309C0E4E3F0E08A8188
:10254000808304C0E1E3F0E08A8180830F900F90E4
:102550000F900F90CF91DF910895DF93CF9300D02C
:1025600000D0CDB7DEB789836A838981843090F546
:102570008981282F30E03C832B838B819C818130A3
:102580009105D1F02B813C81223031052CF48B81D7
:102590009C81009761F01EC02B813C812230310567
:1025A00081F08B819C818330910581F013C0EBE336
:1025B000F0E08A8180830EC0E8E3F0E08A818083C6
:1025C00009C0E5E3F0E08A81808304C0E2E3F0E043
:1025D0008A8180830F900F900F900F90CF91DF91A1
:1025E0000895DF93CF9300D000D00F92CDB7DEB720
:1025F0008A836B8319828A81843008F06BC08B8157
:10260000883008F067C08A81282F30E03D832C8312
:102610004C815D814130510541F18C819D81823039
:10262000910534F42C813D812115310561F052C0B2
:102630004C815D814230510551F18C819D81833007
:102640009105B9F147C0E9E3F0E08081282F30E03F
:102650008B81882F90E0A90102C0559547958A95F6
:10266000E2F7CA018170898335C0E6E3F0E080813A
:10267000282F30E08B81882F90E0A90102C055956A
:1026800047958A95E2F7CA018170898323C0E3E305
:10269000F0E08081282F30E08B81882F90E0A90125
:1026A00002C0559547958A95E2F7CA0181708983E2
:1026B00011C0E0E3F0E08081282F30E08B81882F8B
:1026C00090E0A90102C0559547958A95E2F7CA01A5
:1026D0008170898389810F900F900F900F900F90D8
:1026E000CF91DF910895DF93CF9300D000D000D039
:1026F000CDB7DEB789836A838981833008F05EC0F5
:102700008A81843008F05AC08981282F30E03E83C6
:102710002D838D819E8181309105D1F02D813E8167
:102720002230310561F18D819E81009709F046C00C
:10273000A5E5B0E0E5E5F0E080818C7F8C93A5E530
:10274000B0E0E5E5F0E090818A81892B8C9336C07A
:10275000A5E5B0E0E5E5F0E08081837F8C93A5E519
:10276000B0E0E5E5F0E08081282F8A81882F90E0B5
:10277000880F991F880F991F822B8C931FC08A8105
:10278000282F30E03C832B838B819C818230910504
:1027900031F02B813C812330310549F00FC0A4E595
:1027A000B0E0E4E5F0E080818F7B8C9307C0A4E586
:1027B000B0E0E4E5F0E0808180648C9326960FB66B
:1027C000F894DEBF0FBECDBFCF91DF910895DF93A8
:1027D000CF9300D00F92CDB7DEB789838981833044
:1027E00050F58981282F30E03B832A838A819B81A1
:1027F0008130910589F02A813B8122303105A1F099
:102800008A819B810097B9F4ABE5B0E0EBE5F0E09D
:10281000808180648C930FC0ABE5B0E0EBE5F0E025
:10282000808180688C9307C0ABE5B0E0EBE5F0E019
:10283000808180628C930F900F900F90CF91DF91E9
:102840000895DF93CF9300D00F92CDB7DEB7898381
:102850008981833050F58981282F30E03B832A839A
:102860008A819B818130910589F02A813B812230C8
:102870003105A1F08A819B810097B9F4ABE5B0E006
:10288000EBE5F0E080818F7B8C930FC0ABE5B0E08F
:10289000EBE5F0E080818F778C9307C0ABE5B0E08B
:1028A000EBE5F0E080818F7D8C930F900F900F907F
:1028B000CF91DF910895DF93CF9300D00F92CDB7E2
:1028C000DEB789838981833050F58981282F30E0F4
:1028D0003B832A838A819B818130910589F02A81FB
:1028E0003B8122303105A1F08A819B810097B9F4A8
:1028F000AAE5B0E0EAE5F0E0808180648C930FC047
:10290000AAE5B0E0EAE5F0E0808180688C9307C03A
:10291000AAE5B0E0EAE5F0E0808180628C930F9058
:102920000F900F90CF91DF910895DF93CF9300D058
:1029300000D00F92CDB7DEB789837B836A8389810C
:10294000833058F58A819B81009739F18981282F3E
:1029500030E03D832C838C819D818130910581F015
:102960002C813D812230310591F08C819D81009731
:10297000A1F48A819B819093DB008093DA000DC0E3
:102980008A819B819093DD008093DC0006C08A8160
:102990009B819093DF008093DE000F900F900F904B
:1029A0000F900F90CF91DF9108951F920F920FB665
:1029B0000F9211242F933F934F935F936F937F93C5
:1029C0008F939F93AF93BF93EF93FF93DF93CF9337
:1029D000CDB7DEB78091DA009091DB00009729F047
:1029E000E091DA00F091DB000995CF91DF91FF9142
:1029F000EF91BF91AF919F918F917F916F915F9177
:102A00004F913F912F910F900FBE0F901F901895EF
:102A10001F920F920FB60F9211242F933F934F9353
:102A20005F936F937F938F939F93AF93BF93EF9336
:102A3000FF93DF93CF93CDB7DEB78091DC00909109
:102A4000DD00009729F0E091DC00F091DD000995B0
:102A5000CF91DF91FF91EF91BF91AF919F918F91B6
:102A60007F916F915F914F913F912F910F900FBE8A
:102A70000F901F9018951F920F920FB60F9211246E
:102A80002F933F934F935F936F937F938F939F9376
:102A9000AF93BF93EF93FF93DF93CF93CDB7DEB7A1
:102AA0008091DE009091DF00009729F0E091DE0038
:102AB000F091DF000995CF91DF91FF91EF91BF91E8
:102AC000AF919F918F917F916F915F914F913F91C6
:102AD0002F910F900FBE0F901F901895DF93CF93FB
:102AE000CDB7DEB72E970FB6F894DEBF0FBECDBFC1
:102AF00082E067E041E00E94C21080E090E0A0E048
:102B0000B0E48B879C87AD87BE876B857C858D8580
:102B10009E8520E030E04AEF54E40E941F02DC0171
:102B2000CB018F839887A987BA876F81788589853C
:102B30009A8520E030E040E85FE30E942504882386
:102B40002CF481E090E09E838D833FC06F81788577
:102B500089859A8520E03FEF4FE757E40E94C5033F
:102B600018164CF56B857C858D859E8520E030E0C0
:102B700040E251E40E941F02DC01CB01BC01CD0107
:102B80000E944900DC01CB019E838D830FC088EC3D
:102B900090E09C838B838B819C810197F1F79C83D0
:102BA0008B838D819E8101979E838D838D819E81F4
:102BB000009769F714C06F81788589859A850E948E
:102BC0004900DC01CB019E838D838D819E819A8398
:102BD000898389819A810197F1F79A83898382E0B9
:102BE00067E040E00E94C2102E960FB6F894DEBF58
:102BF0000FBECDBFCF91DF910895DF93CF930F929A
:102C0000CDB7DEB789838981982F917083E064E026
:102C1000492F0E94C21089818695982F917083E078
:102C200065E0492F0E94C210898186958695982F6C
:102C3000917083E066E0492F0E94C21089818695D9
:102C400086958695982F917083E067E0492F0E94C2
:102C5000C2100F90CF91DF910895DF93CF930F9221
:102C6000CDB7DEB7898382E060E040E00E94C21009
:102C700082E061E040E00E94C210898182958F70FD
:102C80000E94FD150E946E1589810E94FD150E940B
:102C90006E150F90CF91DF910895DF93CF930F9230
:102CA000CDB7DEB7898382E060E041E00E94C210C8
:102CB00082E061E040E00E94C210898182958F70BD
:102CC0000E94FD150E946E1589810E94FD150E94CB
:102CD0006E150F90CF91DF910895DF93CF93CDB70D
:102CE000DEB7E8970FB6F894DEBF0FBECDBF80E029
:102CF00090E0ACE0B2E48DAB9EABAFABB8AF6DA9EA
:102D00007EA98FA998AD20E030E04AEF54E40E94FC
:102D10001F02DC01CB0189AB9AABABABBCAB69A9A1
:102D20007AA98BA99CA920E030E040E85FE30E94EB
:102D3000250488232CF481E090E098AB8FA73FC056
:102D400069A97AA98BA99CA920E03FEF4FE757E436
:102D50000E94C50318164CF56DA97EA98FA998ADE0
:102D600020E030E040E251E40E941F02DC01CB0190
:102D7000BC01CD010E944900DC01CB0198AB8FA7BB
:102D80000FC088EC90E09EA78DA78DA59EA501970A
:102D9000F1F79EA78DA78FA598A9019798AB8FA74C
:102DA0008FA598A9009769F714C069A97AA98BA97A
:102DB0009CA90E944900DC01CB0198AB8FA78FA58D
:102DC00098A99CA78BA78BA59CA50197F1F79CA719
:102DD0008BA782E060E040E00E94C21082E061E0E8
:102DE00040E00E94C21082E00E94FD150E946E1514
:102DF00088E20E942D1680E090E0A0E8BFE38FA358
:102E000098A7A9A7BAA76FA178A589A59AA520E038
:102E100030E04AEF54E40E941F02DC01CB018BA397
:102E20009CA3ADA3BEA36BA17CA18DA19EA120E01C
:102E300030E040E85FE30E94250488232CF481E021
:102E400090E09AA389A33FC06BA17CA18DA19EA114
:102E500020E03FEF4FE757E40E94C50318164CF5FA
:102E60006FA178A589A59AA520E030E040E251E461
:102E70000E941F02DC01CB01BC01CD010E94490070
:102E8000DC01CB019AA389A30FC088EC90E098A342
:102E90008F8F8F8D98A10197F1F798A38F8F89A1BC
:102EA0009AA101979AA389A389A19AA1009769F78A
:102EB00014C06BA17CA18DA19EA10E944900DC01E0
:102EC000CB019AA389A389A19AA19E8F8D8F8D8D05
:102ED0009E8D0197F1F79E8F8D8F8CE00E942D16AD
:102EE00080E090E0A0E8BFE3898F9A8FAB8FBC8F22
:102EF000698D7A8D8B8D9C8D20E030E04AEF54E413
:102F00000E941F02DC01CB018D8B9E8BAF8BB88F93
:102F10006D897E898F89988D20E030E040E85FE3FD
:102F20000E94250488232CF481E090E09C8B8B8BFD
:102F30003FC06D897E898F89988D20E03FEF4FE7F4
:102F400057E40E94C50318164CF5698D7A8D8B8D58
:102F50009C8D20E030E040E251E40E941F02DC0141
:102F6000CB01BC01CD010E944900DC01CB019C8B4F
:102F70008B8B0FC088EC90E09A8B898B89899A891A
:102F80000197F1F79A8B898B8B899C8901979C8B90
:102F90008B8B8B899C89009769F714C06D897E891A
:102FA0008F89988D0E944900DC01CB019C8B8B8B13
:102FB0008B899C89988B8F878F8598890197F1F7EA
:102FC000988B8F8781E00E942D1680E090E0A0E032
:102FD000B0E48B879C87AD87BE876B857C858D85AC
:102FE0009E8520E030E04AEF54E40E941F02DC019D
:102FF000CB018F839887A987BA876F817885898568
:103000009A8520E030E040E85FE30E9425048823B1
:103010002CF481E090E09E838D833FC06F817885A2
:1030200089859A8520E03FEF4FE757E40E94C5036A
:1030300018164CF56B857C858D859E8520E030E0EB
:1030400040E251E40E941F02DC01CB01BC01CD0132
:103050000E944900DC01CB019E838D830FC088EC68
:1030600090E09C838B838B819C810197F1F79C83FB
:103070008B838D819E8101979E838D838D819E811F
:10308000009769F714C06F81788589859A850E94B9
:103090004900DC01CB019E838D838D819E819A83C3
:1030A000898389819A810197F1F79A83898386E0E0
:1030B0000E942D16E8960FB6F894DEBF0FBECDBF66
:1030C000CF91DF910895DF93CF9300D0CDB7DEB7D6
:1030D0009A8389830BC0E981FA81208189819A8151
:1030E00001969A838983822F0E944D16E981FA8185
:1030F0008081882381F70F900F90CF91DF91089501
:10310000DF93CF93CDB7DEB72E970FB6F894DEBF1F
:103110000FBECDBF81E00E942D1680E090E0A0E0C0
:10312000B0E48B879C87AD87BE876B857C858D855A
:103130009E8520E030E04AEF54E40E941F02DC014B
:10314000CB018F839887A987BA876F817885898516
:103150009A8520E030E040E85FE30E942504882360
:103160002CF481E090E09E838D833FC06F81788551
:1031700089859A8520E03FEF4FE757E40E94C50319
:1031800018164CF56B857C858D859E8520E030E09A
:1031900040E251E40E941F02DC01CB01BC01CD01E1
:1031A0000E944900DC01CB019E838D830FC088EC17
:1031B00090E09C838B838B819C810197F1F79C83AA
:1031C0008B838D819E8101979E838D838D819E81CE
:1031D000009769F714C06F81788589859A850E9468
:1031E0004900DC01CB019E838D838D819E819A8372
:1031F000898389819A810197F1F79A8389832E9631
:103200000FB6F894DEBF0FBECDBFCF91DF9108950A
:10321000DF93CF93CDB7DEB760970FB6F894DEBFDC
:103220000FBECDBF8F87688B8F85882329F488894F
:1032300080580E942D1607C08F85813021F488891F
:1032400080540E942D1680E090E0A0E8BFE38B87B9
:103250009C87AD87BE876B857C858D859E8520E0AC
:1032600030E04AEF54E40E941F02DC01CB018F835F
:103270009887A987BA876F81788589859A8520E0A4
:1032800030E040E85FE30E94250488232CF481E0CD
:1032900090E09E838D833FC06F81788589859A8574
:1032A00020E03FEF4FE757E40E94C50318164CF5A6
:1032B0006B857C858D859E8520E030E040E251E481
:1032C0000E941F02DC01CB01BC01CD010E9449001C
:1032D000DC01CB019E838D830FC088EC90E09C8342
:1032E0008B838B819C810197F1F79C838B838D81EC
:1032F0009E8101979E838D838D819E81009769F7C2
:1033000014C06F81788589859A850E944900DC0107
:10331000CB019E838D838D819E819A838983898150
:103320009A810197F1F79A83898360960FB6F89492
:10333000DEBF0FBECDBFCF91DF910895DF93CF9356
:1033400000D000D0CDB7DEB79C838B8381E090E0C6
:103350009A8389838B819C81009731F580E30E9459
:103360004D1640C089819A819C01220F331FC901EB
:10337000880F991F880F991FF901E80FF91F8B819A
:103380009C812AE030E0B9010E94601A8E0F9F1FD5
:103390009A8389838B819C812AE030E0B9010E9465
:1033A000601ACB019C838B838B819C810097D1F623
:1033B00014C089819A812AE030E0B9010E94601A24
:1033C000805D0E944D1689819A812AE030E0B90122
:1033D0000E94601ACB019A83898389819A81813006
:1033E000910539F70F900F900F900F90CF91DF91CB
:1033F0000895DF93CF9300D000D00F92CDB7DEB702
:103400008B837D836C838B81882F90E0880F991F3D
:10341000880F991F880F991F8A838A8180640E9470
:103420002D1619820EC08981282F30E08C819D8154
:10343000FC01E20FF31F80810E944D1689818F5F8E
:1034400089838981883078F380E80E942D160F9057
:103450000F900F900F900F90CF91DF910895DF9311
:10346000CF93CDB7DEB7A3E5B0E0E3E5F0E0808130
:103470008F7B8C93A3E5B0E0E3E5F0E0808188608A
:103480008C93A9E5B0E0E9E5F0E080818E7F8C9334
:10349000A9E5B0E0E9E5F0E0808182608C93A3E5E6
:1034A000B0E0E3E5F0E08081887C8C93A3E5B0E0B8
:1034B000E3E5F0E0808183608C93CF91DF91089504
:1034C000AA1BBB1B51E107C0AA1FBB1FA617B7074A
:1034D00010F0A61BB70B881F991F5A95A9F7809566
:1034E0009095BC01CD01089597FB092E07260AD0BF
:1034F00077FD04D0E5DF06D000201AF470956195C1
:103500007F4F0895F6F7909581959F4F08952F92DC
:103510003F924F925F926F927F928F929F92AF9263
:10352000BF92CF92DF92EF92FF920F931F93CF93B0
:10353000DF93CDB7DEB7CA1BDB0B0FB6F894DEBF47
:103540000FBECDBF09942A88398848885F846E846D
:103550007D848C849B84AA84B984C884DF80EE80B7
:10356000FD800C811B81AA81B981CE0FD11D0FB6C0
:10357000F894DEBF0FBECDBFED010895A0E0B0E02E
:10358000E4ECFAE10C948F1AEC01A880B980CA80AF
:10359000DB80A114B104C104D10441F484E2A82E5B
:1035A00089EDB82E8BE5C82E87E0D82EC601B5016F
:1035B0002DE133EF41E050E00E943E1B27EA31E469
:1035C00040E050E00E941F1B7B018C01C601B50149
:1035D0002DE133EF41E050E00E943E1BCA01B901EA
:1035E0002CEE34EF4FEF5FEF0E941F1B6E0D7F1D1F
:1035F000801F911F97FF04C0615070408040904829
:10360000688379838A839B839B013F77C901CDB708
:10361000DEB7EAE00C94AB1A0E94BE1A089585E862
:1036200090E00E94BE1A0895A0E0B0E0809385006B
:1036300090938600A0938700B09388000895629FBE
:10364000D001739FF001829FE00DF11D649FE00D9A
:10365000F11D929FF00D839FF00D749FF00D659FFB
:10366000F00D9927729FB00DE11DF91F639FB00DFA
:10367000E11DF91FBD01CF011124089597FB092E0B
:1036800005260ED057FD04D014D00AD0001C38F403
:1036900050954095309521953F4F4F4F5F4F08957E
:1036A000F6F790958095709561957F4F8F4F9F4F5E
:1036B0000895A1E21A2EAA1BBB1BFD010DC0AA1F73
:1036C000BB1FEE1FFF1FA217B307E407F50720F08B
:1036D000A21BB30BE40BF50B661F771F881F991F06
:1036E0001A9469F760957095809590959B01AC014F
:0A36F000BD01CF010895F894FFCF4B
:1036FA00505245535320544F2053544152540020A2
:10370A00200047414D45204F5645522100000000F8
:10371A000000000000010000000000020203030193
:10372A0001070707041C1C18080000020203030112
:10373A0001070707041C1C1800000002020303010A
:10374A0000070707041C1C180800040414141C04AE
:10375A0004040505151F04040401010101091F00E1
:0A376A00000010181C1E1F000000D4
:00000001FF
