:100000000C942A000C94BA020C94E3020C940C0396
:100010000C9447000C9447000C9447000C94470044
:100020000C9447000C9447000C94D0050C94A70541
:100030000C9447000C9447000C9447000C94470024
:100040000C9447000C9447000C9447000C94470014
:100050000C94470011241FBECFE5D8E0DEBFCDBF12
:1000600010E0A0E6B0E0EAE5F1E102C005900D92F3
:10007000A23CB107D9F710E0A2ECB0E001C01D929C
:10008000A73EB107E1F70E94A0060C94AB080C94C0
:10009000F90580E487B986E886B9089597B18F712C
:1000A000907E892B87B9369A349BFECF349A24B13F
:1000B00045B1942F80E030E0282B392BC9010895F9
:1000C00084E88ABB8FEF87BB84BB8FE781BB1BBAF9
:1000D00018BA15BA12BA0895843008F075C068309D
:1000E00008F072C04423D1F58130A1F0813030F0A6
:1000F0008230E1F0833009F067C024C02AB381E088
:1001000090E002C0880F991F6A95E2F780958223DC
:100110008ABB089527B381E090E002C0880F991F41
:100120006A95E2F78095822387BB089524B381E026
:1001300090E002C0880F991F6A95E2F780958223AC
:1001400084BB089521B381E090E002C0880F991F1D
:100150006A95E2F78095822381BB08954130A1F52D
:10016000813091F0813028F08230C9F0833061F520
:1001700021C02AB381E090E002C0880F991F6A95E0
:10018000E2F7282B2ABB089527B381E090E002C054
:10019000880F991F6A95E2F7282B27BB089524B38F
:1001A00081E090E002C0880F991F6A95E2F7282B42
:1001B00024BB089521B381E090E002C0880F991F0D
:1001C0006A95E2F7282B21BB0895843048F5662311
:1001D00089F4813049F0813028F0823039F0833061
:1001E000F9F406C01ABA089517BA089514BA089512
:1001F00011BA08956130A1F4813051F0813028F0B6
:10020000823049F0833061F409C08FEF8ABB0895D2
:100210008FEF87BB08958FEF84BB08958FEF81BB6D
:100220000895843008F075C0683008F072C0442327
:10023000D1F58130A1F0813030F08230E1F08330AF
:1002400009F067C024C02BB381E090E002C0880FA2
:10025000991F6A95E2F7809582238BBB089528B396
:1002600081E090E002C0880F991F6A95E2F78095BF
:10027000822388BB089525B381E090E002C0880FF7
:10028000991F6A95E2F78095822385BB089522B372
:1002900081E090E002C0880F991F6A95E2F780958F
:1002A000822382BB08954130A1F5813091F08130E5
:1002B00028F08230C9F0833061F521C02BB381E092
:1002C00090E002C0880F991F6A95E2F7282B2BBB9C
:1002D000089528B381E090E002C0880F991F6A95C5
:1002E000E2F7282B28BB089525B381E090E002C0F7
:1002F000880F991F6A95E2F7282B25BB089522B332
:1003000081E090E002C0880F991F6A95E2F7282BE0
:1003100022BB0895843080F4813049F0813028F088
:10032000823039F0833041F406C06BBB089568BB5E
:10033000089565BB089562BB08958430D0F4683099
:10034000C0F4813049F0813028F0823039F08330B8
:1003500081F406C089B305C086B303C083B301C06E
:1003600080B390E002C0959587956A95E2F7817019
:10037000089580E00895843088F4813049F0813018
:1003800028F0823039F0833049F406C089B30895EB
:1003900086B3089583B3089580B3089580E00895E7
:1003A0008430B0F56830A0F5813091F0813028F0CC
:1003B0008230C9F0833061F521C02BB381E090E039
:1003C00002C0880F991F6A95E2F728272BBB089572
:1003D00028B381E090E002C0880F991F6A95E2F788
:1003E000282728BB089525B381E090E002C0880F3C
:1003F000991F6A95E2F7282725BB089522B381E06B
:1004000090E002C0880F991F6A95E2F7282722BB67
:1004100008958430C0F4813059F0813028F0823062
:1004200059F0833081F40CC08BB380958BBB089559
:1004300088B3809588BB089585B3809585BB089562
:1004400082B3809582BB0895843058F4683048F4B4
:10045000413019F40E9411010895442311F40E94BF
:1004600011010895843048F4613019F40E948A0122
:100470000895662311F40E948A010895833010F5CF
:10048000643000F5813051F0813018F08230D1F4C1
:100490000EC085B78C7F85BF85B706C085B7837FC3
:1004A00085BF85B7660F660F862B85BF08956230BE
:1004B00021F484B78F7B84BF0895633019F484B727
:1004C000806484BF0895833088F4813041F08130A6
:1004D00018F0823059F407C08BB7806402C08BB724
:1004E00080688BBF08958BB780628BBF089583307F
:1004F00088F4813041F0813018F0823059F407C01F
:100500008BB78F7B02C08BB78F778BBF08958BB76C
:100510008F7D8BBF0895833088F4813041F0813026
:1005200018F0823059F407C08AB7806402C08AB7D5
:1005300080688ABF08958AB780628ABF0895833031
:10054000C0F461157105A9F0813051F0813018F0C7
:10055000823079F40AC07093C3006093C20008959A
:100560007093C5006093C40008957093C7006093B2
:10057000C60008951F920F920FB60F9211242F9369
:100580003F934F935F936F937F938F939F93AF931B
:10059000BF93EF93FF93E091C200F091C3003097B7
:1005A00009F00995FF91EF91BF91AF919F918F91C4
:1005B0007F916F915F914F913F912F910F900FBE5F
:1005C0000F901F9018951F920F920FB60F92112443
:1005D0002F933F934F935F936F937F938F939F934B
:1005E000AF93BF93EF93FF93E091C400F091C500E8
:1005F000309709F00995FF91EF91BF91AF919F91CD
:100600008F917F916F915F914F913F912F910F90BB
:100610000FBE0F901F9018951F920F920FB60F925A
:1006200011242F933F934F935F936F937F938F93F7
:100630009F93AF93BF93EF93FF93E091C600F09128
:10064000C700309709F00995FF91EF91BF91AF91E5
:100650009F918F917F916F915F914F913F912F91DA
:100660000F900FBE0F901F901895882331F08130A6
:1006700039F48FB780688FBF08958FB78F778FBF9A
:1006800008956F927F928F929F92AF92BF92DF9266
:10069000EF92FF920F931F93DF93CF930F92CDB7FB
:1006A000DEB7DD24DA9400E010E020ED822E27E0B2
:1006B000922E90E6A92E9AEEB92EF801E658FF4F39
:1006C000E08081E06E2D40E00E941101C40101979D
:1006D000F1F766247724F301E258FF4FF08081E0C0
:1006E0006F2D0E949D018823F9F4C5010197F1F750
:1006F00081E06F2D0E949D018823B1F481E06F2D70
:100700000E949D018823D1F3C5010197F1F7F801FB
:10071000EE0FFF1FEE0FFF1FE60DF71DE659FF4F0F
:10072000D08081E0898308C00894611C711CE4E0DA
:100730006E16710481F6198281E06E2D41E00E94EF
:100740001101F981F13051F00F5F1F4F0430110595
:1007500009F0B3CF80E29EE40197F1F78D2D0F9061
:10076000CF91DF911F910F91FF90EF90DF90BF909D
:10077000AF909F908F907F906F9008951F93CF932D
:10078000DF93CAE7D0E0199181E0612F41E00E9438
:100790006C0081E0612F41E00E94110180E0CE37C2
:1007A000D80789F7CEE7D0E0199181E0612F40E0CA
:1007B0000E946C0081E0612F41E00E94110180E005
:1007C000C238D80789F7DF91CF911F9108951F9301
:1007D000182F83E065E041E00E94110183E066E0AC
:1007E00040E00E94110182E0612F0E948A0183E0B3
:1007F00067E041E00E94110185E08A95F1F783E00E
:1008000067E040E00E94110185E88A95F1F71F91A9
:1008100008958F929F92AF92BF92CF92DF92EF9204
:10082000FF920F931F93DF93CF93CDB7DEB72B9734
:100830000FB6F894DEBF0FBECDBF7B018C016115F2
:1008400071058105910521F480E30E94E7034DC005
:1008500097FF10C08DE20E94E703AA24BB24650124
:10086000AE18BF08C00AD10AFF244E010894811CAB
:10087000911C1EC05B016C01F7CF84010F0D111D8F
:10088000C601B5012AE030E040E050E00E9489084E
:10089000605DF8016083C601B5012AE030E040E008
:1008A00050E00E948908C901DA015C016D01F394EE
:1008B000A114B104C104D10401F7FA948F2D90E082
:1008C0007401E80EF91E00E010E06C01F701808170
:1008D0000E94E703015010400894E108F108C801A4
:1008E0008C0D9D1D8F5F9F4F89F72B960FB6F89447
:1008F000DEBF0FBECDBFCF91DF911F910F91FF9053
:10090000EF90DF90CF90BF90AF909F908F90089521
:100910001F93CF93DF93EC0110E003C00E94E70325
:100920001F5FFE01E10FF11D80818823B9F7DF9180
:10093000CF911F9108951F93182F83E065E040E049
:100940000E94110183E066E040E00E94110182E014
:10095000612F0E948A0183E067E041E00E9411015B
:1009600085E08A95F1F783E067E040E00E9411019D
:1009700085E88A95F1F71F9108958CE10E949B0408
:1009800085E88A95F1F7089588E10E949B0485E83F
:100990008A95F1F7089581E00E949B0480EA9FE028
:1009A0000197F1F708950F931F93CF93DF938B0176
:1009B0000E949B04C0E0D0E0F801EC0FFD1F808195
:1009C0000E94E7032196C830D105B1F7DF91CF919E
:1009D0001F910F910895982F9150923070F4862FA7
:1009E0008150803150F4992321F480580E949B0457
:1009F0000895862F81540E949B0408950F931F939E
:100A0000CF93DF93082F11E0C0E0D0E0802F612F5B
:100A10000E94EB0480E20E94E7031F5F2196C03131
:100A2000D105A1F7DF91CF911F910F9108950E94F9
:100A3000EB0480E20E94E70308950F931F93082FB1
:100A4000862F642F0E94EB0410E0C8018054904070
:100A500068E070E00E947608862F0E94E7031F91ED
:100A60000F9108951F9382E061E00E94E50083E00A
:100A700065E041E00E946C0083E066E041E00E9496
:100A80006C0083E067E041E00E946C008EE591E03D
:100A900028EC30E0F9013197F1F70197D9F788E3B5
:100AA0000E949B0415E8812F8A95F1F78CE00E9443
:100AB0009B04812F8A95F1F781E00E949B0480EAD4
:100AC0009FE00197F1F786E00E949B041A95F1F7E9
:100AD0001F91089583B7877F83BF83B78F7B83BFC1
:100AE00089B7816089BF89B78D7F89BF83B7887FC8
:100AF00083BF83B7826083BF08958CBF089582BF90
:100B0000089583B7887F83BF0895009721F090935D
:100B1000CB008093CA000895009721F09093C900FC
:100B20008093C8000895853688F4682F70E080E0CF
:100B300090E02FEF30E040E050E00E94430824E6D0
:100B400030E040E050E00E9489082CBF08951F92D9
:100B50000F920FB60F9211242F933F934F935F93F1
:100B60006F937F938F939F93AF93BF93EF93FF9375
:100B7000E091CA00F091CB00309709F00995FF9100
:100B8000EF91BF91AF919F918F917F916F915F9105
:100B90004F913F912F910F900FBE0F901F9018957E
:100BA0001F920F920FB60F9211242F933F934F93E2
:100BB0005F936F937F938F939F93AF93BF93EF93C5
:100BC000FF93E091C800F091C900309709F00995B2
:100BD000FF91EF91BF91AF919F918F917F916F9115
:100BE0005F914F913F912F910F900FBE0F901F90EB
:100BF00018951F920F920FB60F9211240F900FBEEF
:100C00000F901F9018958DE08093DE008091E10099
:100C10009091E2008136910510F0069702C08AE5B6
:100C200090E09093E2008093E1008091D300909156
:100C3000D40063E070E00E9462088093DF008823A4
:100C400019F0813069F406C080E78093E00062EA21
:100C500070E00EC088E78093E0006AEA70E008C0A8
:100C600080E762EB70E00E94D30488E76AEB70E0F3
:100C70000E94D30408958091D200882339F080E542
:100C800062E042E00E941D0588E506C080E662E061
:100C900042E00E941D0588E662E043E00E941D05D7
:100CA00008950F931F938091E3009091E40068EE04
:100CB00073E00E946208182F092F81E06EE00E9405
:100CC000EB04812F902F64E670E00E946208862F6B
:100CD000805D0E94E703812F902F6AE070E00E9400
:100CE0006208CB016AE070E00E946208805D0E94A9
:100CF000E703812F902F6AE070E00E946208805D18
:100D00000E94E7031F910F9108950E94CB04109257
:100D1000CD001092D1001092D2008AE991E0909318
:100D2000E2008093E1000E9403061092E40010921A
:100D3000E3000E9451060E943B061092CC000895E9
:100D4000EF92FF920F931F93CF93DF930E94600067
:100D50000E94320581E060E040E00E946C0081E08A
:100D600060E041E00E94240281E061E041E00E94F5
:100D70006C0081E061E040E00E94110180E562E8E2
:100D800070E00E94D30488E56AE870E00E94D30412
:100D900080E662E970E00E94D30488E66AE970E0C8
:100DA0000E94D3040E946A0580E00E947F058EEDB8
:100DB00097E00E94850581E00E9435030E94850628
:100DC00011E08CEDE82E85E0F82ECFE0D0E001C0F8
:100DD000102F81E060E00E949D01082F8091CC00DF
:100DE000882309F0BDC00023E9F41130D9F48091C3
:100DF000CD008823B9F482E062E00E94170582E00A
:100E000063E00E94170580E561E042E00E941D0555
:100E100088E561E043E00E941D051093CD0084E069
:100E20008093D1008091CE00882381F01092CE0073
:100E30008091CD00882351F490E08091D2008823E6
:100E400009F491E09093D2000E943B068091CF007C
:100E5000882309F472C01092CF008091CD008823BE
:100E6000B9F08091D100882319F081508093D1008E
:100E70008091D100882361F481E062E00E9417052F
:100E800081E063E00E9417051092CD000E943B06AE
:100E90008091DF00823061F481E06091DE000E9489
:100EA00017056091DE00623040F0615081E003C0C0
:100EB00082E06091DE000E9417058091DE008230A2
:100EC00018F40E94030603C081508093DE008091D5
:100ED000DF00823061F44091DE00423028F0415062
:100EE00080E761E00E941D0588E761E003C0809112
:100EF000E00062E04091DE000E941D058091DF006D
:100F00009091CD00823091F49923B9F08091DE0068
:100F1000882311F490E002C0982F915082508230C3
:100F2000A8F1923099F1933041F430C0992329F41B
:100F30008091DE008250823048F18091D000882379
:100F400009F446CF1092D0008091E3009091E40024
:100F500001969093E4008093E3000E94510638CFFD
:100F60008091D000882309F433CF1092D000809173
:100F7000E5009091E60001979093E6008093E500EC
:100F8000892B09F025CF0E94850622CF0E94CB0431
:100F900081E064E00E94EB0480E690E00E94880417
:100FA000F092D600E092D50081E08093D700809344
:100FB000CC00D093E600C093E500BFCF8091D30072
:100FC0009091D40001969093D4008093D3008091A7
:100FD000DC009091DD0001969093DD008093DC00B1
:100FE000883C910538F01092DD001092DC0081E021
:100FF0008093CE008091DA009091DB00019690936F
:10100000DB008093DA002091E1003091E20082174A
:10101000930738F01092DB001092DA0081E08093A1
:10102000CF008091D8009091D90001969093D9007B
:101030008093D8008059914038F01092D9001092D6
:10104000D80081E08093D0008091D7008823D1F030
:1010500081E061E00E94D0018091D5009091D6009E
:1010600001979093D6008093D5008091D500909100
:10107000D600892B39F41092D70081E061E040E07E
:101080000E9411010895629FD001739FF001829F19
:10109000E00DF11D649FE00DF11D929FF00D839F07
:1010A000F00D749FF00D659FF00D9927729FB00DA4
:1010B000E11DF91F639FB00DE11DF91FBD01CF01B7
:1010C00011240895AA1BBB1B51E107C0AA1FBB1F17
:1010D000A617B70710F0A61BB70B881F991F5A95C4
:1010E000A9F780959095BC01CD01089597FB092E35
:1010F00007260AD077FD04D0E5DF06D000201AF4D9
:10110000709561957F4F0895F6F7909581959F4F63
:101110000895A1E21A2EAA1BBB1BFD010DC0AA1F38
:10112000BB1FEE1FFF1FA217B307E407F50720F050
:10113000A21BB30BE40BF50B661F771F881F991FCB
:101140001A9469F760957095809590959B01AC0114
:0A115000BD01CF010895F894FFCF10
:10115A0047414D45204F564552003738392F3435CF
:10116A00362A3132332D43303D2B00010203040568
:10117A0006070000020203030101070707041C1CFB
:10118A0018000000020203030100070707041C1CE1
:10119A00180800040414141C0404040505151F048B
:1011AA00040401010101091F00000010181C1E1F80
:0211BA00000033
:00000001FF
